Archive member included to satisfy reference by file (symbol)

/opt/st/stm32cubeide_1.6.1/plugins/com.st.stm32cube.ide.mcu.externaltools.gnu-tools-for-stm32.9-2020-q2-update.linux64_1.5.0.202011040924/tools/bin/../lib/gcc/arm-none-eabi/9.3.1/../../../../arm-none-eabi/lib/thumb/v7e-m+fp/hard/libc_nano.a(lib_a-errno.o)
                              Core/Src/syscalls.o (__errno)
/opt/st/stm32cubeide_1.6.1/plugins/com.st.stm32cube.ide.mcu.externaltools.gnu-tools-for-stm32.9-2020-q2-update.linux64_1.5.0.202011040924/tools/bin/../lib/gcc/arm-none-eabi/9.3.1/../../../../arm-none-eabi/lib/thumb/v7e-m+fp/hard/libc_nano.a(lib_a-exit.o)
                              /opt/st/stm32cubeide_1.6.1/plugins/com.st.stm32cube.ide.mcu.externaltools.gnu-tools-for-stm32.9-2020-q2-update.linux64_1.5.0.202011040924/tools/bin/../lib/gcc/arm-none-eabi/9.3.1/../../../../arm-none-eabi/lib/thumb/v7e-m+fp/hard/crt0.o (exit)
/opt/st/stm32cubeide_1.6.1/plugins/com.st.stm32cube.ide.mcu.externaltools.gnu-tools-for-stm32.9-2020-q2-update.linux64_1.5.0.202011040924/tools/bin/../lib/gcc/arm-none-eabi/9.3.1/../../../../arm-none-eabi/lib/thumb/v7e-m+fp/hard/libc_nano.a(lib_a-impure.o)
                              /opt/st/stm32cubeide_1.6.1/plugins/com.st.stm32cube.ide.mcu.externaltools.gnu-tools-for-stm32.9-2020-q2-update.linux64_1.5.0.202011040924/tools/bin/../lib/gcc/arm-none-eabi/9.3.1/../../../../arm-none-eabi/lib/thumb/v7e-m+fp/hard/libc_nano.a(lib_a-exit.o) (_global_impure_ptr)
/opt/st/stm32cubeide_1.6.1/plugins/com.st.stm32cube.ide.mcu.externaltools.gnu-tools-for-stm32.9-2020-q2-update.linux64_1.5.0.202011040924/tools/bin/../lib/gcc/arm-none-eabi/9.3.1/../../../../arm-none-eabi/lib/thumb/v7e-m+fp/hard/libc_nano.a(lib_a-init.o)
                              /opt/st/stm32cubeide_1.6.1/plugins/com.st.stm32cube.ide.mcu.externaltools.gnu-tools-for-stm32.9-2020-q2-update.linux64_1.5.0.202011040924/tools/bin/../lib/gcc/arm-none-eabi/9.3.1/../../../../arm-none-eabi/lib/thumb/v7e-m+fp/hard/crt0.o (__libc_init_array)
/opt/st/stm32cubeide_1.6.1/plugins/com.st.stm32cube.ide.mcu.externaltools.gnu-tools-for-stm32.9-2020-q2-update.linux64_1.5.0.202011040924/tools/bin/../lib/gcc/arm-none-eabi/9.3.1/../../../../arm-none-eabi/lib/thumb/v7e-m+fp/hard/libc_nano.a(lib_a-memset.o)
                              /opt/st/stm32cubeide_1.6.1/plugins/com.st.stm32cube.ide.mcu.externaltools.gnu-tools-for-stm32.9-2020-q2-update.linux64_1.5.0.202011040924/tools/bin/../lib/gcc/arm-none-eabi/9.3.1/../../../../arm-none-eabi/lib/thumb/v7e-m+fp/hard/crt0.o (memset)
/opt/st/stm32cubeide_1.6.1/plugins/com.st.stm32cube.ide.mcu.externaltools.gnu-tools-for-stm32.9-2020-q2-update.linux64_1.5.0.202011040924/tools/bin/../lib/gcc/arm-none-eabi/9.3.1/thumb/v7e-m+fp/hard/libgcc.a(_arm_muldivdf3.o)
                              Core/Src/main.o (__aeabi_ddiv)
/opt/st/stm32cubeide_1.6.1/plugins/com.st.stm32cube.ide.mcu.externaltools.gnu-tools-for-stm32.9-2020-q2-update.linux64_1.5.0.202011040924/tools/bin/../lib/gcc/arm-none-eabi/9.3.1/thumb/v7e-m+fp/hard/libgcc.a(_arm_fixunsdfsi.o)
                              Core/Src/main.o (__aeabi_d2uiz)
/opt/st/stm32cubeide_1.6.1/plugins/com.st.stm32cube.ide.mcu.externaltools.gnu-tools-for-stm32.9-2020-q2-update.linux64_1.5.0.202011040924/tools/bin/../lib/gcc/arm-none-eabi/9.3.1/thumb/v7e-m+fp/hard/libgcc.a(_aeabi_ldivmod.o)
                              Drivers/STM32F4xx_HAL_Driver/stm32f4xx_hal_rcc.o (__aeabi_ldivmod)
/opt/st/stm32cubeide_1.6.1/plugins/com.st.stm32cube.ide.mcu.externaltools.gnu-tools-for-stm32.9-2020-q2-update.linux64_1.5.0.202011040924/tools/bin/../lib/gcc/arm-none-eabi/9.3.1/thumb/v7e-m+fp/hard/libgcc.a(_aeabi_uldivmod.o)
                              Drivers/STM32F4xx_HAL_Driver/stm32f4xx_hal_rcc.o (__aeabi_uldivmod)
/opt/st/stm32cubeide_1.6.1/plugins/com.st.stm32cube.ide.mcu.externaltools.gnu-tools-for-stm32.9-2020-q2-update.linux64_1.5.0.202011040924/tools/bin/../lib/gcc/arm-none-eabi/9.3.1/thumb/v7e-m+fp/hard/libgcc.a(_udivmoddi4.o)
                              /opt/st/stm32cubeide_1.6.1/plugins/com.st.stm32cube.ide.mcu.externaltools.gnu-tools-for-stm32.9-2020-q2-update.linux64_1.5.0.202011040924/tools/bin/../lib/gcc/arm-none-eabi/9.3.1/thumb/v7e-m+fp/hard/libgcc.a(_aeabi_ldivmod.o) (__udivmoddi4)
/opt/st/stm32cubeide_1.6.1/plugins/com.st.stm32cube.ide.mcu.externaltools.gnu-tools-for-stm32.9-2020-q2-update.linux64_1.5.0.202011040924/tools/bin/../lib/gcc/arm-none-eabi/9.3.1/thumb/v7e-m+fp/hard/libgcc.a(_dvmd_tls.o)
                              /opt/st/stm32cubeide_1.6.1/plugins/com.st.stm32cube.ide.mcu.externaltools.gnu-tools-for-stm32.9-2020-q2-update.linux64_1.5.0.202011040924/tools/bin/../lib/gcc/arm-none-eabi/9.3.1/thumb/v7e-m+fp/hard/libgcc.a(_aeabi_ldivmod.o) (__aeabi_ldiv0)

Allocating common symbols
Common symbol       size              file

selected_channel_indices
                    0xc               Core/Src/main.o
hUsbDeviceFS        0x2d0             USB_DEVICE/App/usb_device.o
n_bytes_remaining   0x4               Core/Src/main.o
hpcd_USB_OTG_FS     0x408             USB_DEVICE/Target/usbd_conf.o
current_state       0x1               Core/Src/main.o
uwTick              0x4               Drivers/STM32F4xx_HAL_Driver/stm32f4xx_hal.o
pFlash              0x20              Drivers/STM32F4xx_HAL_Driver/stm32f4xx_hal_flash.o
htim5               0x48              Core/Src/main.o
UserRxBufferFS      0x100             USB_DEVICE/App/usbd_cdc_if.o
channel_configurations
                    0x18              Core/Src/main.o
last_bit_index      0x1               Core/Src/main.o
UserTxBufferFS      0xd6d8            USB_DEVICE/App/usbd_cdc_if.o
hdac                0x14              Core/Src/main.o
htim6               0x48              Core/Src/main.o
backup_buffer       0xd73c            Core/Src/main.o
n_buffered_bytes    0x2               Core/Src/main.o
htim2               0x48              Core/Src/main.o
n_satisfied_triggers
                    0x1               Core/Src/main.o
previous_channel_state
                    0xd               Core/Src/main.o
n_lost_packets      0x4               Core/Src/main.o
general_configuration
                    0x10              Core/Src/main.o
USBD_StrDesc        0x200             USB_DEVICE/App/usbd_desc.o
htim7               0x48              Core/Src/main.o
sample_data         0x4               Core/Src/main.o
trigger_condition_satisfied
                    0xd               Core/Src/main.o

Discarded input sections

 .text          0x0000000000000000        0x0 /opt/st/stm32cubeide_1.6.1/plugins/com.st.stm32cube.ide.mcu.externaltools.gnu-tools-for-stm32.9-2020-q2-update.linux64_1.5.0.202011040924/tools/bin/../lib/gcc/arm-none-eabi/9.3.1/thumb/v7e-m+fp/hard/crti.o
 .data          0x0000000000000000        0x0 /opt/st/stm32cubeide_1.6.1/plugins/com.st.stm32cube.ide.mcu.externaltools.gnu-tools-for-stm32.9-2020-q2-update.linux64_1.5.0.202011040924/tools/bin/../lib/gcc/arm-none-eabi/9.3.1/thumb/v7e-m+fp/hard/crti.o
 .bss           0x0000000000000000        0x0 /opt/st/stm32cubeide_1.6.1/plugins/com.st.stm32cube.ide.mcu.externaltools.gnu-tools-for-stm32.9-2020-q2-update.linux64_1.5.0.202011040924/tools/bin/../lib/gcc/arm-none-eabi/9.3.1/thumb/v7e-m+fp/hard/crti.o
 .data          0x0000000000000000        0x4 /opt/st/stm32cubeide_1.6.1/plugins/com.st.stm32cube.ide.mcu.externaltools.gnu-tools-for-stm32.9-2020-q2-update.linux64_1.5.0.202011040924/tools/bin/../lib/gcc/arm-none-eabi/9.3.1/thumb/v7e-m+fp/hard/crtbegin.o
 .text          0x0000000000000000       0x7c /opt/st/stm32cubeide_1.6.1/plugins/com.st.stm32cube.ide.mcu.externaltools.gnu-tools-for-stm32.9-2020-q2-update.linux64_1.5.0.202011040924/tools/bin/../lib/gcc/arm-none-eabi/9.3.1/../../../../arm-none-eabi/lib/thumb/v7e-m+fp/hard/crt0.o
 .data          0x0000000000000000        0x0 /opt/st/stm32cubeide_1.6.1/plugins/com.st.stm32cube.ide.mcu.externaltools.gnu-tools-for-stm32.9-2020-q2-update.linux64_1.5.0.202011040924/tools/bin/../lib/gcc/arm-none-eabi/9.3.1/../../../../arm-none-eabi/lib/thumb/v7e-m+fp/hard/crt0.o
 .bss           0x0000000000000000        0x0 /opt/st/stm32cubeide_1.6.1/plugins/com.st.stm32cube.ide.mcu.externaltools.gnu-tools-for-stm32.9-2020-q2-update.linux64_1.5.0.202011040924/tools/bin/../lib/gcc/arm-none-eabi/9.3.1/../../../../arm-none-eabi/lib/thumb/v7e-m+fp/hard/crt0.o
 .ARM.extab     0x0000000000000000        0x0 /opt/st/stm32cubeide_1.6.1/plugins/com.st.stm32cube.ide.mcu.externaltools.gnu-tools-for-stm32.9-2020-q2-update.linux64_1.5.0.202011040924/tools/bin/../lib/gcc/arm-none-eabi/9.3.1/../../../../arm-none-eabi/lib/thumb/v7e-m+fp/hard/crt0.o
 .ARM.exidx     0x0000000000000000       0x10 /opt/st/stm32cubeide_1.6.1/plugins/com.st.stm32cube.ide.mcu.externaltools.gnu-tools-for-stm32.9-2020-q2-update.linux64_1.5.0.202011040924/tools/bin/../lib/gcc/arm-none-eabi/9.3.1/../../../../arm-none-eabi/lib/thumb/v7e-m+fp/hard/crt0.o
 .ARM.attributes
                0x0000000000000000       0x1c /opt/st/stm32cubeide_1.6.1/plugins/com.st.stm32cube.ide.mcu.externaltools.gnu-tools-for-stm32.9-2020-q2-update.linux64_1.5.0.202011040924/tools/bin/../lib/gcc/arm-none-eabi/9.3.1/../../../../arm-none-eabi/lib/thumb/v7e-m+fp/hard/crt0.o
 .group         0x0000000000000000        0xc Core/Src/main.o
 .group         0x0000000000000000        0xc Core/Src/main.o
 .group         0x0000000000000000        0xc Core/Src/main.o
 .group         0x0000000000000000        0xc Core/Src/main.o
 .group         0x0000000000000000        0xc Core/Src/main.o
 .group         0x0000000000000000        0xc Core/Src/main.o
 .group         0x0000000000000000        0xc Core/Src/main.o
Memory Configuration

Name             Origin             Length             Attributes
CCMRAM           0x0000000010000000 0x0000000000010000 xrw
RAM              0x0000000020000000 0x0000000000020000 xrw
FLASH            0x0000000008000000 0x0000000000100000 xr
*default*        0x0000000000000000 0xffffffffffffffff

Linker script and memory map

LOAD /opt/st/stm32cubeide_1.6.1/plugins/com.st.stm32cube.ide.mcu.externaltools.gnu-tools-for-stm32.9-2020-q2-update.linux64_1.5.0.202011040924/tools/bin/../lib/gcc/arm-none-eabi/9.3.1/thumb/v7e-m+fp/hard/crti.o
LOAD /opt/st/stm32cubeide_1.6.1/plugins/com.st.stm32cube.ide.mcu.externaltools.gnu-tools-for-stm32.9-2020-q2-update.linux64_1.5.0.202011040924/tools/bin/../lib/gcc/arm-none-eabi/9.3.1/thumb/v7e-m+fp/hard/crtbegin.o
LOAD /opt/st/stm32cubeide_1.6.1/plugins/com.st.stm32cube.ide.mcu.externaltools.gnu-tools-for-stm32.9-2020-q2-update.linux64_1.5.0.202011040924/tools/bin/../lib/gcc/arm-none-eabi/9.3.1/../../../../arm-none-eabi/lib/thumb/v7e-m+fp/hard/crt0.o
LOAD Core/Src/main.o
LOAD Core/Src/stm32f4xx_hal_msp.o
LOAD Core/Src/stm32f4xx_it.o
LOAD Core/Src/syscalls.o
LOAD Core/Src/sysmem.o
LOAD Core/Src/system_stm32f4xx.o
LOAD Core/Src/volatile_mem_utilities.o
LOAD Core/Startup/startup_stm32f407vgtx.o
LOAD Drivers/STM32F4xx_HAL_Driver/stm32f4xx_hal.o
LOAD Drivers/STM32F4xx_HAL_Driver/stm32f4xx_hal_cortex.o
LOAD Drivers/STM32F4xx_HAL_Driver/stm32f4xx_hal_dac.o
LOAD Drivers/STM32F4xx_HAL_Driver/stm32f4xx_hal_dac_ex.o
LOAD Drivers/STM32F4xx_HAL_Driver/stm32f4xx_hal_dma.o
LOAD Drivers/STM32F4xx_HAL_Driver/stm32f4xx_hal_dma_ex.o
LOAD Drivers/STM32F4xx_HAL_Driver/stm32f4xx_hal_exti.o
LOAD Drivers/STM32F4xx_HAL_Driver/stm32f4xx_hal_flash.o
LOAD Drivers/STM32F4xx_HAL_Driver/stm32f4xx_hal_flash_ex.o
LOAD Drivers/STM32F4xx_HAL_Driver/stm32f4xx_hal_flash_ramfunc.o
LOAD Drivers/STM32F4xx_HAL_Driver/stm32f4xx_hal_gpio.o
LOAD Drivers/STM32F4xx_HAL_Driver/stm32f4xx_hal_pcd.o
LOAD Drivers/STM32F4xx_HAL_Driver/stm32f4xx_hal_pcd_ex.o
LOAD Drivers/STM32F4xx_HAL_Driver/stm32f4xx_hal_pwr.o
LOAD Drivers/STM32F4xx_HAL_Driver/stm32f4xx_hal_pwr_ex.o
LOAD Drivers/STM32F4xx_HAL_Driver/stm32f4xx_hal_rcc.o
LOAD Drivers/STM32F4xx_HAL_Driver/stm32f4xx_hal_rcc_ex.o
LOAD Drivers/STM32F4xx_HAL_Driver/stm32f4xx_hal_tim.o
LOAD Drivers/STM32F4xx_HAL_Driver/stm32f4xx_hal_tim_ex.o
LOAD Drivers/STM32F4xx_HAL_Driver/stm32f4xx_ll_usb.o
LOAD Middlewares/USB_Device_Library/usbd_cdc.o
LOAD Middlewares/USB_Device_Library/usbd_core.o
LOAD Middlewares/USB_Device_Library/usbd_ctlreq.o
LOAD Middlewares/USB_Device_Library/usbd_ioreq.o
LOAD USB_DEVICE/App/usb_device.o
LOAD USB_DEVICE/App/usbd_cdc_if.o
LOAD USB_DEVICE/App/usbd_desc.o
LOAD USB_DEVICE/Target/usbd_conf.o
START GROUP
LOAD /opt/st/stm32cubeide_1.6.1/plugins/com.st.stm32cube.ide.mcu.externaltools.gnu-tools-for-stm32.9-2020-q2-update.linux64_1.5.0.202011040924/tools/bin/../lib/gcc/arm-none-eabi/9.3.1/../../../../arm-none-eabi/lib/thumb/v7e-m+fp/hard/libc_nano.a
LOAD /opt/st/stm32cubeide_1.6.1/plugins/com.st.stm32cube.ide.mcu.externaltools.gnu-tools-for-stm32.9-2020-q2-update.linux64_1.5.0.202011040924/tools/bin/../lib/gcc/arm-none-eabi/9.3.1/../../../../arm-none-eabi/lib/thumb/v7e-m+fp/hard/libm.a
END GROUP
START GROUP
LOAD /opt/st/stm32cubeide_1.6.1/plugins/com.st.stm32cube.ide.mcu.externaltools.gnu-tools-for-stm32.9-2020-q2-update.linux64_1.5.0.202011040924/tools/bin/../lib/gcc/arm-none-eabi/9.3.1/thumb/v7e-m+fp/hard/libgcc.a
LOAD /opt/st/stm32cubeide_1.6.1/plugins/com.st.stm32cube.ide.mcu.externaltools.gnu-tools-for-stm32.9-2020-q2-update.linux64_1.5.0.202011040924/tools/bin/../lib/gcc/arm-none-eabi/9.3.1/../../../../arm-none-eabi/lib/thumb/v7e-m+fp/hard/libc_nano.a
END GROUP
START GROUP
LOAD /opt/st/stm32cubeide_1.6.1/plugins/com.st.stm32cube.ide.mcu.externaltools.gnu-tools-for-stm32.9-2020-q2-update.linux64_1.5.0.202011040924/tools/bin/../lib/gcc/arm-none-eabi/9.3.1/thumb/v7e-m+fp/hard/libgcc.a
LOAD /opt/st/stm32cubeide_1.6.1/plugins/com.st.stm32cube.ide.mcu.externaltools.gnu-tools-for-stm32.9-2020-q2-update.linux64_1.5.0.202011040924/tools/bin/../lib/gcc/arm-none-eabi/9.3.1/../../../../arm-none-eabi/lib/thumb/v7e-m+fp/hard/libc_nano.a
LOAD /opt/st/stm32cubeide_1.6.1/plugins/com.st.stm32cube.ide.mcu.externaltools.gnu-tools-for-stm32.9-2020-q2-update.linux64_1.5.0.202011040924/tools/bin/../lib/gcc/arm-none-eabi/9.3.1/../../../../arm-none-eabi/lib/thumb/v7e-m+fp/hard/libnosys.a
END GROUP
START GROUP
LOAD /opt/st/stm32cubeide_1.6.1/plugins/com.st.stm32cube.ide.mcu.externaltools.gnu-tools-for-stm32.9-2020-q2-update.linux64_1.5.0.202011040924/tools/bin/../lib/gcc/arm-none-eabi/9.3.1/thumb/v7e-m+fp/hard/libgcc.a
LOAD /opt/st/stm32cubeide_1.6.1/plugins/com.st.stm32cube.ide.mcu.externaltools.gnu-tools-for-stm32.9-2020-q2-update.linux64_1.5.0.202011040924/tools/bin/../lib/gcc/arm-none-eabi/9.3.1/../../../../arm-none-eabi/lib/thumb/v7e-m+fp/hard/libc_nano.a
LOAD /opt/st/stm32cubeide_1.6.1/plugins/com.st.stm32cube.ide.mcu.externaltools.gnu-tools-for-stm32.9-2020-q2-update.linux64_1.5.0.202011040924/tools/bin/../lib/gcc/arm-none-eabi/9.3.1/../../../../arm-none-eabi/lib/thumb/v7e-m+fp/hard/libnosys.a
END GROUP
LOAD /opt/st/stm32cubeide_1.6.1/plugins/com.st.stm32cube.ide.mcu.externaltools.gnu-tools-for-stm32.9-2020-q2-update.linux64_1.5.0.202011040924/tools/bin/../lib/gcc/arm-none-eabi/9.3.1/thumb/v7e-m+fp/hard/crtend.o
LOAD /opt/st/stm32cubeide_1.6.1/plugins/com.st.stm32cube.ide.mcu.externaltools.gnu-tools-for-stm32.9-2020-q2-update.linux64_1.5.0.202011040924/tools/bin/../lib/gcc/arm-none-eabi/9.3.1/thumb/v7e-m+fp/hard/crtn.o
                0x0000000020020000                _estack = (ORIGIN (RAM) + LENGTH (RAM))
                0x0000000000000200                _Min_Heap_Size = 0x200
                0x0000000000002000                _Min_Stack_Size = 0x2000

.isr_vector     0x0000000008000000      0x188
                0x0000000008000000                . = ALIGN (0x4)
 *(.isr_vector)
 .isr_vector    0x0000000008000000      0x188 Core/Startup/startup_stm32f407vgtx.o
                0x0000000008000000                g_pfnVectors
                0x0000000008000188                . = ALIGN (0x4)

.text           0x0000000008000188     0x5184
                0x0000000008000188                . = ALIGN (0x4)
 *(.text)
 .text          0x0000000008000188       0x40 /opt/st/stm32cubeide_1.6.1/plugins/com.st.stm32cube.ide.mcu.externaltools.gnu-tools-for-stm32.9-2020-q2-update.linux64_1.5.0.202011040924/tools/bin/../lib/gcc/arm-none-eabi/9.3.1/thumb/v7e-m+fp/hard/crtbegin.o
 .text          0x00000000080001c8      0x424 /opt/st/stm32cubeide_1.6.1/plugins/com.st.stm32cube.ide.mcu.externaltools.gnu-tools-for-stm32.9-2020-q2-update.linux64_1.5.0.202011040924/tools/bin/../lib/gcc/arm-none-eabi/9.3.1/thumb/v7e-m+fp/hard/libgcc.a(_arm_muldivdf3.o)
                0x00000000080001c8                __aeabi_dmul
                0x00000000080001c8                __muldf3
                0x000000000800041c                __aeabi_ddiv
                0x000000000800041c                __divdf3
 .text          0x00000000080005ec       0x40 /opt/st/stm32cubeide_1.6.1/plugins/com.st.stm32cube.ide.mcu.externaltools.gnu-tools-for-stm32.9-2020-q2-update.linux64_1.5.0.202011040924/tools/bin/../lib/gcc/arm-none-eabi/9.3.1/thumb/v7e-m+fp/hard/libgcc.a(_arm_fixunsdfsi.o)
                0x00000000080005ec                __fixunsdfsi
                0x00000000080005ec                __aeabi_d2uiz
 .text          0x000000000800062c       0x30 /opt/st/stm32cubeide_1.6.1/plugins/com.st.stm32cube.ide.mcu.externaltools.gnu-tools-for-stm32.9-2020-q2-update.linux64_1.5.0.202011040924/tools/bin/../lib/gcc/arm-none-eabi/9.3.1/thumb/v7e-m+fp/hard/libgcc.a(_aeabi_uldivmod.o)
                0x000000000800062c                __aeabi_uldivmod
 .text          0x000000000800065c      0x2c4 /opt/st/stm32cubeide_1.6.1/plugins/com.st.stm32cube.ide.mcu.externaltools.gnu-tools-for-stm32.9-2020-q2-update.linux64_1.5.0.202011040924/tools/bin/../lib/gcc/arm-none-eabi/9.3.1/thumb/v7e-m+fp/hard/libgcc.a(_udivmoddi4.o)
                0x000000000800065c                __udivmoddi4
 .text          0x0000000008000920        0x4 /opt/st/stm32cubeide_1.6.1/plugins/com.st.stm32cube.ide.mcu.externaltools.gnu-tools-for-stm32.9-2020-q2-update.linux64_1.5.0.202011040924/tools/bin/../lib/gcc/arm-none-eabi/9.3.1/thumb/v7e-m+fp/hard/libgcc.a(_dvmd_tls.o)
                0x0000000008000920                __aeabi_ldiv0
                0x0000000008000920                __aeabi_idiv0
 *(.text*)
 .text.Transfer_Buffer
                0x0000000008000924       0x68 Core/Src/main.o
                0x0000000008000924                Transfer_Buffer
 .text.Error_Handler
                0x000000000800098c       0x18 Core/Src/main.o
                0x000000000800098c                Error_Handler
 .text.SystemClock_Config
                0x00000000080009a4       0xa4 Core/Src/main.o
                0x00000000080009a4                SystemClock_Config
 .text.startup.main
                0x0000000008000a48      0x298 Core/Src/main.o
                0x0000000008000a48                main
 .text.Complete_Reconfiguration
                0x0000000008000ce0       0x78 Core/Src/main.o
                0x0000000008000ce0                Complete_Reconfiguration
 .text.Check_Triggers
                0x0000000008000d58      0x168 Core/Src/main.o
                0x0000000008000d58                Check_Triggers
 .text.Stop_Sampling
                0x0000000008000ec0       0xa4 Core/Src/main.o
 .text.Sample_Channels
                0x0000000008000f64      0x140 Core/Src/main.o
                0x0000000008000f64                Sample_Channels
 *fill*         0x00000000080010a4        0x4 
 .text.Process_USB_Data
                0x00000000080010a8      0x414 Core/Src/main.o
                0x00000000080010a8                Process_USB_Data
 .text.HAL_MspInit
                0x00000000080014bc       0x3c Core/Src/stm32f4xx_hal_msp.o
                0x00000000080014bc                HAL_MspInit
 .text.HAL_DAC_MspInit
                0x00000000080014f8       0x78 Core/Src/stm32f4xx_hal_msp.o
                0x00000000080014f8                HAL_DAC_MspInit
 .text.HAL_TIM_Base_MspInit
                0x0000000008001570       0xe8 Core/Src/stm32f4xx_hal_msp.o
                0x0000000008001570                HAL_TIM_Base_MspInit
 .text.HAL_TIM_Base_MspDeInit
                0x0000000008001658       0x70 Core/Src/stm32f4xx_hal_msp.o
                0x0000000008001658                HAL_TIM_Base_MspDeInit
 .text.NMI_Handler
                0x00000000080016c8        0x4 Core/Src/stm32f4xx_it.o
                0x00000000080016c8                NMI_Handler
 .text.HardFault_Handler
                0x00000000080016cc        0x8 Core/Src/stm32f4xx_it.o
                0x00000000080016cc                HardFault_Handler
 .text.MemManage_Handler
                0x00000000080016d4        0x8 Core/Src/stm32f4xx_it.o
                0x00000000080016d4                MemManage_Handler
 .text.BusFault_Handler
                0x00000000080016dc        0x8 Core/Src/stm32f4xx_it.o
                0x00000000080016dc                BusFault_Handler
 .text.UsageFault_Handler
                0x00000000080016e4        0x8 Core/Src/stm32f4xx_it.o
                0x00000000080016e4                UsageFault_Handler
 .text.SVC_Handler
                0x00000000080016ec        0x4 Core/Src/stm32f4xx_it.o
                0x00000000080016ec                SVC_Handler
 .text.DebugMon_Handler
                0x00000000080016f0        0x4 Core/Src/stm32f4xx_it.o
                0x00000000080016f0                DebugMon_Handler
 .text.PendSV_Handler
                0x00000000080016f4        0x4 Core/Src/stm32f4xx_it.o
                0x00000000080016f4                PendSV_Handler
 .text.SysTick_Handler
                0x00000000080016f8        0x4 Core/Src/stm32f4xx_it.o
                0x00000000080016f8                SysTick_Handler
 .text.TIM2_IRQHandler
                0x00000000080016fc       0x14 Core/Src/stm32f4xx_it.o
                0x00000000080016fc                TIM2_IRQHandler
 .text.TIM5_IRQHandler
                0x0000000008001710       0x14 Core/Src/stm32f4xx_it.o
                0x0000000008001710                TIM5_IRQHandler
 .text.TIM6_DAC_IRQHandler
                0x0000000008001724       0x20 Core/Src/stm32f4xx_it.o
                0x0000000008001724                TIM6_DAC_IRQHandler
 .text.TIM7_IRQHandler
                0x0000000008001744       0x14 Core/Src/stm32f4xx_it.o
                0x0000000008001744                TIM7_IRQHandler
 .text.OTG_FS_IRQHandler
                0x0000000008001758        0xc Core/Src/stm32f4xx_it.o
                0x0000000008001758                OTG_FS_IRQHandler
 .text.SystemInit
                0x0000000008001764       0x14 Core/Src/system_stm32f4xx.o
                0x0000000008001764                SystemInit
 .text.Volatile_Copy
                0x0000000008001778       0x14 Core/Src/volatile_mem_utilities.o
                0x0000000008001778                Volatile_Copy
 .text.Reset_Handler
                0x000000000800178c       0x50 Core/Startup/startup_stm32f407vgtx.o
                0x000000000800178c                Reset_Handler
 .text.Default_Handler
                0x00000000080017dc        0x2 Core/Startup/startup_stm32f407vgtx.o
                0x00000000080017dc                RTC_Alarm_IRQHandler
                0x00000000080017dc                HASH_RNG_IRQHandler
                0x00000000080017dc                EXTI2_IRQHandler
                0x00000000080017dc                TIM8_CC_IRQHandler
                0x00000000080017dc                TIM1_CC_IRQHandler
                0x00000000080017dc                DMA2_Stream5_IRQHandler
                0x00000000080017dc                DMA1_Stream5_IRQHandler
                0x00000000080017dc                PVD_IRQHandler
                0x00000000080017dc                SDIO_IRQHandler
                0x00000000080017dc                TAMP_STAMP_IRQHandler
                0x00000000080017dc                CAN2_RX1_IRQHandler
                0x00000000080017dc                EXTI3_IRQHandler
                0x00000000080017dc                TIM8_TRG_COM_TIM14_IRQHandler
                0x00000000080017dc                TIM1_UP_TIM10_IRQHandler
                0x00000000080017dc                TIM8_UP_TIM13_IRQHandler
                0x00000000080017dc                I2C3_ER_IRQHandler
                0x00000000080017dc                EXTI0_IRQHandler
                0x00000000080017dc                I2C2_EV_IRQHandler
                0x00000000080017dc                DMA1_Stream2_IRQHandler
                0x00000000080017dc                CAN1_RX0_IRQHandler
                0x00000000080017dc                FPU_IRQHandler
                0x00000000080017dc                OTG_HS_WKUP_IRQHandler
                0x00000000080017dc                CAN2_SCE_IRQHandler
                0x00000000080017dc                DMA2_Stream2_IRQHandler
                0x00000000080017dc                SPI1_IRQHandler
                0x00000000080017dc                TIM1_BRK_TIM9_IRQHandler
                0x00000000080017dc                DCMI_IRQHandler
                0x00000000080017dc                CAN2_RX0_IRQHandler
                0x00000000080017dc                DMA2_Stream3_IRQHandler
                0x00000000080017dc                USART6_IRQHandler
                0x00000000080017dc                USART3_IRQHandler
                0x00000000080017dc                CAN1_RX1_IRQHandler
                0x00000000080017dc                UART5_IRQHandler
                0x00000000080017dc                DMA2_Stream0_IRQHandler
                0x00000000080017dc                TIM4_IRQHandler
                0x00000000080017dc                I2C1_EV_IRQHandler
                0x00000000080017dc                DMA1_Stream6_IRQHandler
                0x00000000080017dc                DMA1_Stream1_IRQHandler
                0x00000000080017dc                UART4_IRQHandler
                0x00000000080017dc                TIM3_IRQHandler
                0x00000000080017dc                RCC_IRQHandler
                0x00000000080017dc                TIM8_BRK_TIM12_IRQHandler
                0x00000000080017dc                Default_Handler
                0x00000000080017dc                EXTI15_10_IRQHandler
                0x00000000080017dc                ADC_IRQHandler
                0x00000000080017dc                DMA1_Stream7_IRQHandler
                0x00000000080017dc                CAN2_TX_IRQHandler
                0x00000000080017dc                DMA2_Stream7_IRQHandler
                0x00000000080017dc                I2C3_EV_IRQHandler
                0x00000000080017dc                EXTI9_5_IRQHandler
                0x00000000080017dc                RTC_WKUP_IRQHandler
                0x00000000080017dc                ETH_WKUP_IRQHandler
                0x00000000080017dc                SPI2_IRQHandler
                0x00000000080017dc                OTG_HS_EP1_IN_IRQHandler
                0x00000000080017dc                DMA1_Stream0_IRQHandler
                0x00000000080017dc                CAN1_TX_IRQHandler
                0x00000000080017dc                EXTI4_IRQHandler
                0x00000000080017dc                FSMC_IRQHandler
                0x00000000080017dc                ETH_IRQHandler
                0x00000000080017dc                OTG_HS_EP1_OUT_IRQHandler
                0x00000000080017dc                WWDG_IRQHandler
                0x00000000080017dc                OTG_FS_WKUP_IRQHandler
                0x00000000080017dc                TIM1_TRG_COM_TIM11_IRQHandler
                0x00000000080017dc                OTG_HS_IRQHandler
                0x00000000080017dc                EXTI1_IRQHandler
                0x00000000080017dc                USART2_IRQHandler
                0x00000000080017dc                I2C2_ER_IRQHandler
                0x00000000080017dc                DMA2_Stream1_IRQHandler
                0x00000000080017dc                CAN1_SCE_IRQHandler
                0x00000000080017dc                FLASH_IRQHandler
                0x00000000080017dc                DMA2_Stream4_IRQHandler
                0x00000000080017dc                USART1_IRQHandler
                0x00000000080017dc                SPI3_IRQHandler
                0x00000000080017dc                DMA1_Stream4_IRQHandler
                0x00000000080017dc                I2C1_ER_IRQHandler
                0x00000000080017dc                DMA2_Stream6_IRQHandler
                0x00000000080017dc                DMA1_Stream3_IRQHandler
 *fill*         0x00000000080017de        0x2 
 .text.HAL_InitTick
                0x00000000080017e0       0x48 Drivers/STM32F4xx_HAL_Driver/stm32f4xx_hal.o
                0x00000000080017e0                HAL_InitTick
 .text.HAL_Init
                0x0000000008001828       0x34 Drivers/STM32F4xx_HAL_Driver/stm32f4xx_hal.o
                0x0000000008001828                HAL_Init
 .text.HAL_IncTick
                0x000000000800185c       0x18 Drivers/STM32F4xx_HAL_Driver/stm32f4xx_hal.o
                0x000000000800185c                HAL_IncTick
 .text.HAL_GetTick
                0x0000000008001874        0xc Drivers/STM32F4xx_HAL_Driver/stm32f4xx_hal.o
                0x0000000008001874                HAL_GetTick
 .text.HAL_Delay
                0x0000000008001880       0x24 Drivers/STM32F4xx_HAL_Driver/stm32f4xx_hal.o
                0x0000000008001880                HAL_Delay
 .text.HAL_NVIC_SetPriorityGrouping
                0x00000000080018a4       0x28 Drivers/STM32F4xx_HAL_Driver/stm32f4xx_hal_cortex.o
                0x00000000080018a4                HAL_NVIC_SetPriorityGrouping
 .text.HAL_NVIC_SetPriority
                0x00000000080018cc       0x70 Drivers/STM32F4xx_HAL_Driver/stm32f4xx_hal_cortex.o
                0x00000000080018cc                HAL_NVIC_SetPriority
 .text.HAL_NVIC_EnableIRQ
                0x000000000800193c       0x1c Drivers/STM32F4xx_HAL_Driver/stm32f4xx_hal_cortex.o
                0x000000000800193c                HAL_NVIC_EnableIRQ
 .text.HAL_NVIC_DisableIRQ
                0x0000000008001958       0x28 Drivers/STM32F4xx_HAL_Driver/stm32f4xx_hal_cortex.o
                0x0000000008001958                HAL_NVIC_DisableIRQ
 .text.HAL_SYSTICK_Config
                0x0000000008001980       0x34 Drivers/STM32F4xx_HAL_Driver/stm32f4xx_hal_cortex.o
                0x0000000008001980                HAL_SYSTICK_Config
 .text.HAL_DAC_Init
                0x00000000080019b4       0x2c Drivers/STM32F4xx_HAL_Driver/stm32f4xx_hal_dac.o
                0x00000000080019b4                HAL_DAC_Init
 .text.HAL_DAC_Start
                0x00000000080019e0       0x5c Drivers/STM32F4xx_HAL_Driver/stm32f4xx_hal_dac.o
                0x00000000080019e0                HAL_DAC_Start
 .text.HAL_DAC_Stop
                0x0000000008001a3c       0x24 Drivers/STM32F4xx_HAL_Driver/stm32f4xx_hal_dac.o
                0x0000000008001a3c                HAL_DAC_Stop
 .text.HAL_DAC_SetValue
                0x0000000008001a60       0x30 Drivers/STM32F4xx_HAL_Driver/stm32f4xx_hal_dac.o
                0x0000000008001a60                HAL_DAC_SetValue
 .text.HAL_DAC_DMAUnderrunCallbackCh1
                0x0000000008001a90        0x4 Drivers/STM32F4xx_HAL_Driver/stm32f4xx_hal_dac.o
                0x0000000008001a90                HAL_DAC_DMAUnderrunCallbackCh1
 .text.HAL_DAC_IRQHandler
                0x0000000008001a94       0x68 Drivers/STM32F4xx_HAL_Driver/stm32f4xx_hal_dac.o
                0x0000000008001a94                HAL_DAC_IRQHandler
 .text.HAL_DAC_ConfigChannel
                0x0000000008001afc       0x50 Drivers/STM32F4xx_HAL_Driver/stm32f4xx_hal_dac.o
                0x0000000008001afc                HAL_DAC_ConfigChannel
 .text.HAL_DACEx_DMAUnderrunCallbackCh2
                0x0000000008001b4c        0x4 Drivers/STM32F4xx_HAL_Driver/stm32f4xx_hal_dac_ex.o
                0x0000000008001b4c                HAL_DACEx_DMAUnderrunCallbackCh2
 .text.HAL_GPIO_Init
                0x0000000008001b50      0x224 Drivers/STM32F4xx_HAL_Driver/stm32f4xx_hal_gpio.o
                0x0000000008001b50                HAL_GPIO_Init
 .text.HAL_GPIO_DeInit
                0x0000000008001d74      0x158 Drivers/STM32F4xx_HAL_Driver/stm32f4xx_hal_gpio.o
                0x0000000008001d74                HAL_GPIO_DeInit
 .text.HAL_GPIO_ReadPin
                0x0000000008001ecc        0xc Drivers/STM32F4xx_HAL_Driver/stm32f4xx_hal_gpio.o
                0x0000000008001ecc                HAL_GPIO_ReadPin
 .text.HAL_GPIO_WritePin
                0x0000000008001ed8        0x8 Drivers/STM32F4xx_HAL_Driver/stm32f4xx_hal_gpio.o
                0x0000000008001ed8                HAL_GPIO_WritePin
 .text.HAL_GPIO_TogglePin
                0x0000000008001ee0       0x14 Drivers/STM32F4xx_HAL_Driver/stm32f4xx_hal_gpio.o
                0x0000000008001ee0                HAL_GPIO_TogglePin
 .text.HAL_PCD_Init
                0x0000000008001ef4      0x118 Drivers/STM32F4xx_HAL_Driver/stm32f4xx_hal_pcd.o
                0x0000000008001ef4                HAL_PCD_Init
 .text.HAL_PCD_Start
                0x000000000800200c       0x40 Drivers/STM32F4xx_HAL_Driver/stm32f4xx_hal_pcd.o
                0x000000000800200c                HAL_PCD_Start
 .text.HAL_PCD_IRQHandler
                0x000000000800204c      0x62c Drivers/STM32F4xx_HAL_Driver/stm32f4xx_hal_pcd.o
                0x000000000800204c                HAL_PCD_IRQHandler
 .text.HAL_PCD_SetAddress
                0x0000000008002678       0x28 Drivers/STM32F4xx_HAL_Driver/stm32f4xx_hal_pcd.o
                0x0000000008002678                HAL_PCD_SetAddress
 .text.HAL_PCD_EP_Open
                0x00000000080026a0       0x6c Drivers/STM32F4xx_HAL_Driver/stm32f4xx_hal_pcd.o
                0x00000000080026a0                HAL_PCD_EP_Open
 .text.HAL_PCD_EP_Close
                0x000000000800270c       0x60 Drivers/STM32F4xx_HAL_Driver/stm32f4xx_hal_pcd.o
                0x000000000800270c                HAL_PCD_EP_Close
 .text.HAL_PCD_EP_Receive
                0x000000000800276c       0x50 Drivers/STM32F4xx_HAL_Driver/stm32f4xx_hal_pcd.o
                0x000000000800276c                HAL_PCD_EP_Receive
 .text.HAL_PCD_EP_GetRxCount
                0x00000000080027bc       0x14 Drivers/STM32F4xx_HAL_Driver/stm32f4xx_hal_pcd.o
                0x00000000080027bc                HAL_PCD_EP_GetRxCount
 .text.HAL_PCD_EP_Transmit
                0x00000000080027d0       0x48 Drivers/STM32F4xx_HAL_Driver/stm32f4xx_hal_pcd.o
                0x00000000080027d0                HAL_PCD_EP_Transmit
 .text.HAL_PCD_EP_SetStall
                0x0000000008002818       0x88 Drivers/STM32F4xx_HAL_Driver/stm32f4xx_hal_pcd.o
                0x0000000008002818                HAL_PCD_EP_SetStall
 .text.HAL_PCD_EP_ClrStall
                0x00000000080028a0       0x74 Drivers/STM32F4xx_HAL_Driver/stm32f4xx_hal_pcd.o
                0x00000000080028a0                HAL_PCD_EP_ClrStall
 .text.HAL_PCDEx_SetTxFiFo
                0x0000000008002914       0x48 Drivers/STM32F4xx_HAL_Driver/stm32f4xx_hal_pcd_ex.o
                0x0000000008002914                HAL_PCDEx_SetTxFiFo
 .text.HAL_PCDEx_SetRxFiFo
                0x000000000800295c        0x8 Drivers/STM32F4xx_HAL_Driver/stm32f4xx_hal_pcd_ex.o
                0x000000000800295c                HAL_PCDEx_SetRxFiFo
 .text.HAL_PCDEx_LPM_Callback
                0x0000000008002964        0x4 Drivers/STM32F4xx_HAL_Driver/stm32f4xx_hal_pcd_ex.o
                0x0000000008002964                HAL_PCDEx_LPM_Callback
 .text.HAL_RCC_OscConfig
                0x0000000008002968      0x3cc Drivers/STM32F4xx_HAL_Driver/stm32f4xx_hal_rcc.o
                0x0000000008002968                HAL_RCC_OscConfig
 .text.HAL_RCC_GetSysClockFreq
                0x0000000008002d34       0x6c Drivers/STM32F4xx_HAL_Driver/stm32f4xx_hal_rcc.o
                0x0000000008002d34                HAL_RCC_GetSysClockFreq
 .text.HAL_RCC_ClockConfig
                0x0000000008002da0      0x13c Drivers/STM32F4xx_HAL_Driver/stm32f4xx_hal_rcc.o
                0x0000000008002da0                HAL_RCC_ClockConfig
 .text.HAL_RCC_GetHCLKFreq
                0x0000000008002edc        0xc Drivers/STM32F4xx_HAL_Driver/stm32f4xx_hal_rcc.o
                0x0000000008002edc                HAL_RCC_GetHCLKFreq
 .text.HAL_TIM_Base_Init
                0x0000000008002ee8      0x11c Drivers/STM32F4xx_HAL_Driver/stm32f4xx_hal_tim.o
                0x0000000008002ee8                HAL_TIM_Base_Init
 .text.HAL_TIM_Base_DeInit
                0x0000000008003004       0x60 Drivers/STM32F4xx_HAL_Driver/stm32f4xx_hal_tim.o
                0x0000000008003004                HAL_TIM_Base_DeInit
 .text.HAL_TIM_Base_Start_IT
                0x0000000008003064       0x78 Drivers/STM32F4xx_HAL_Driver/stm32f4xx_hal_tim.o
                0x0000000008003064                HAL_TIM_Base_Start_IT
 .text.HAL_TIM_Base_Stop_IT
                0x00000000080030dc       0x30 Drivers/STM32F4xx_HAL_Driver/stm32f4xx_hal_tim.o
                0x00000000080030dc                HAL_TIM_Base_Stop_IT
 .text.HAL_TIM_ConfigClockSource
                0x000000000800310c      0x160 Drivers/STM32F4xx_HAL_Driver/stm32f4xx_hal_tim.o
                0x000000000800310c                HAL_TIM_ConfigClockSource
 .text.HAL_TIM_PeriodElapsedCallback
                0x000000000800326c        0x4 Drivers/STM32F4xx_HAL_Driver/stm32f4xx_hal_tim.o
                0x000000000800326c                HAL_TIM_PeriodElapsedCallback
 .text.HAL_TIM_OC_DelayElapsedCallback
                0x0000000008003270        0x4 Drivers/STM32F4xx_HAL_Driver/stm32f4xx_hal_tim.o
                0x0000000008003270                HAL_TIM_OC_DelayElapsedCallback
 .text.HAL_TIM_IC_CaptureCallback
                0x0000000008003274        0x4 Drivers/STM32F4xx_HAL_Driver/stm32f4xx_hal_tim.o
                0x0000000008003274                HAL_TIM_IC_CaptureCallback
 .text.HAL_TIM_PWM_PulseFinishedCallback
                0x0000000008003278        0x4 Drivers/STM32F4xx_HAL_Driver/stm32f4xx_hal_tim.o
                0x0000000008003278                HAL_TIM_PWM_PulseFinishedCallback
 .text.HAL_TIM_TriggerCallback
                0x000000000800327c        0x4 Drivers/STM32F4xx_HAL_Driver/stm32f4xx_hal_tim.o
                0x000000000800327c                HAL_TIM_TriggerCallback
 .text.HAL_TIM_IRQHandler
                0x0000000008003280      0x154 Drivers/STM32F4xx_HAL_Driver/stm32f4xx_hal_tim.o
                0x0000000008003280                HAL_TIM_IRQHandler
 .text.HAL_TIMEx_MasterConfigSynchronization
                0x00000000080033d4       0x84 Drivers/STM32F4xx_HAL_Driver/stm32f4xx_hal_tim_ex.o
                0x00000000080033d4                HAL_TIMEx_MasterConfigSynchronization
 .text.HAL_TIMEx_CommutCallback
                0x0000000008003458        0x4 Drivers/STM32F4xx_HAL_Driver/stm32f4xx_hal_tim_ex.o
                0x0000000008003458                HAL_TIMEx_CommutCallback
 .text.HAL_TIMEx_BreakCallback
                0x000000000800345c        0x4 Drivers/STM32F4xx_HAL_Driver/stm32f4xx_hal_tim_ex.o
                0x000000000800345c                HAL_TIMEx_BreakCallback
 .text.USB_CoreInit
                0x0000000008003460      0x100 Drivers/STM32F4xx_HAL_Driver/stm32f4xx_ll_usb.o
                0x0000000008003460                USB_CoreInit
 .text.USB_SetTurnaroundTime
                0x0000000008003560       0xf0 Drivers/STM32F4xx_HAL_Driver/stm32f4xx_ll_usb.o
                0x0000000008003560                USB_SetTurnaroundTime
 .text.USB_EnableGlobalInt
                0x0000000008003650       0x10 Drivers/STM32F4xx_HAL_Driver/stm32f4xx_ll_usb.o
                0x0000000008003650                USB_EnableGlobalInt
 .text.USB_DisableGlobalInt
                0x0000000008003660       0x10 Drivers/STM32F4xx_HAL_Driver/stm32f4xx_ll_usb.o
                0x0000000008003660                USB_DisableGlobalInt
 .text.USB_SetCurrentMode
                0x0000000008003670       0x70 Drivers/STM32F4xx_HAL_Driver/stm32f4xx_ll_usb.o
                0x0000000008003670                USB_SetCurrentMode
 .text.USB_DevInit
                0x00000000080036e0      0x1e0 Drivers/STM32F4xx_HAL_Driver/stm32f4xx_ll_usb.o
                0x00000000080036e0                USB_DevInit
 .text.USB_FlushTxFifo
                0x00000000080038c0       0x34 Drivers/STM32F4xx_HAL_Driver/stm32f4xx_ll_usb.o
                0x00000000080038c0                USB_FlushTxFifo
 .text.USB_GetDevSpeed
                0x00000000080038f4       0x18 Drivers/STM32F4xx_HAL_Driver/stm32f4xx_ll_usb.o
                0x00000000080038f4                USB_GetDevSpeed
 .text.USB_ActivateEndpoint
                0x000000000800390c       0x98 Drivers/STM32F4xx_HAL_Driver/stm32f4xx_ll_usb.o
                0x000000000800390c                USB_ActivateEndpoint
 .text.USB_DeactivateEndpoint
                0x00000000080039a4       0xc4 Drivers/STM32F4xx_HAL_Driver/stm32f4xx_ll_usb.o
                0x00000000080039a4                USB_DeactivateEndpoint
 .text.USB_EPStartXfer
                0x0000000008003a68      0x22c Drivers/STM32F4xx_HAL_Driver/stm32f4xx_ll_usb.o
                0x0000000008003a68                USB_EPStartXfer
 .text.USB_EP0StartXfer
                0x0000000008003c94      0x154 Drivers/STM32F4xx_HAL_Driver/stm32f4xx_ll_usb.o
                0x0000000008003c94                USB_EP0StartXfer
 .text.USB_WritePacket
                0x0000000008003de8       0x2c Drivers/STM32F4xx_HAL_Driver/stm32f4xx_ll_usb.o
                0x0000000008003de8                USB_WritePacket
 .text.USB_ReadPacket
                0x0000000008003e14       0x4c Drivers/STM32F4xx_HAL_Driver/stm32f4xx_ll_usb.o
                0x0000000008003e14                USB_ReadPacket
 .text.USB_EPSetStall
                0x0000000008003e60       0x5c Drivers/STM32F4xx_HAL_Driver/stm32f4xx_ll_usb.o
                0x0000000008003e60                USB_EPSetStall
 .text.USB_EPClearStall
                0x0000000008003ebc       0x58 Drivers/STM32F4xx_HAL_Driver/stm32f4xx_ll_usb.o
                0x0000000008003ebc                USB_EPClearStall
 .text.USB_SetDevAddress
                0x0000000008003f14       0x20 Drivers/STM32F4xx_HAL_Driver/stm32f4xx_ll_usb.o
                0x0000000008003f14                USB_SetDevAddress
 .text.USB_DevConnect
                0x0000000008003f34       0x1c Drivers/STM32F4xx_HAL_Driver/stm32f4xx_ll_usb.o
                0x0000000008003f34                USB_DevConnect
 .text.USB_DevDisconnect
                0x0000000008003f50       0x1c Drivers/STM32F4xx_HAL_Driver/stm32f4xx_ll_usb.o
                0x0000000008003f50                USB_DevDisconnect
 .text.USB_ReadInterrupts
                0x0000000008003f6c        0x8 Drivers/STM32F4xx_HAL_Driver/stm32f4xx_ll_usb.o
                0x0000000008003f6c                USB_ReadInterrupts
 .text.USB_ReadDevAllOutEpInterrupt
                0x0000000008003f74       0x10 Drivers/STM32F4xx_HAL_Driver/stm32f4xx_ll_usb.o
                0x0000000008003f74                USB_ReadDevAllOutEpInterrupt
 .text.USB_ReadDevAllInEpInterrupt
                0x0000000008003f84       0x10 Drivers/STM32F4xx_HAL_Driver/stm32f4xx_ll_usb.o
                0x0000000008003f84                USB_ReadDevAllInEpInterrupt
 .text.USB_ReadDevOutEPInterrupt
                0x0000000008003f94       0x14 Drivers/STM32F4xx_HAL_Driver/stm32f4xx_ll_usb.o
                0x0000000008003f94                USB_ReadDevOutEPInterrupt
 .text.USB_ReadDevInEPInterrupt
                0x0000000008003fa8       0x28 Drivers/STM32F4xx_HAL_Driver/stm32f4xx_ll_usb.o
                0x0000000008003fa8                USB_ReadDevInEPInterrupt
 .text.USB_GetMode
                0x0000000008003fd0        0x8 Drivers/STM32F4xx_HAL_Driver/stm32f4xx_ll_usb.o
                0x0000000008003fd0                USB_GetMode
 .text.USB_ActivateSetup
                0x0000000008003fd8       0x20 Drivers/STM32F4xx_HAL_Driver/stm32f4xx_ll_usb.o
                0x0000000008003fd8                USB_ActivateSetup
 .text.USB_EP0_OutStart
                0x0000000008003ff8       0x58 Drivers/STM32F4xx_HAL_Driver/stm32f4xx_ll_usb.o
                0x0000000008003ff8                USB_EP0_OutStart
 .text.USBD_CDC_EP0_RxReady
                0x0000000008004050       0x30 Middlewares/USB_Device_Library/usbd_cdc.o
 .text.USBD_CDC_GetFSCfgDesc
                0x0000000008004080        0xc Middlewares/USB_Device_Library/usbd_cdc.o
 .text.USBD_CDC_GetHSCfgDesc
                0x000000000800408c        0xc Middlewares/USB_Device_Library/usbd_cdc.o
 .text.USBD_CDC_GetOtherSpeedCfgDesc
                0x0000000008004098        0xc Middlewares/USB_Device_Library/usbd_cdc.o
 .text.USBD_CDC_GetDeviceQualifierDescriptor
                0x00000000080040a4        0xc Middlewares/USB_Device_Library/usbd_cdc.o
                0x00000000080040a4                USBD_CDC_GetDeviceQualifierDescriptor
 .text.USBD_CDC_DataOut
                0x00000000080040b0       0x2c Middlewares/USB_Device_Library/usbd_cdc.o
 .text.USBD_CDC_DataIn
                0x00000000080040dc       0x68 Middlewares/USB_Device_Library/usbd_cdc.o
 .text.USBD_CDC_Setup
                0x0000000008004144      0x10c Middlewares/USB_Device_Library/usbd_cdc.o
 .text.USBD_CDC_DeInit
                0x0000000008004250       0x44 Middlewares/USB_Device_Library/usbd_cdc.o
 .text.USBD_CDC_Init
                0x0000000008004294       0xb8 Middlewares/USB_Device_Library/usbd_cdc.o
 .text.USBD_CDC_RegisterInterface
                0x000000000800434c       0x10 Middlewares/USB_Device_Library/usbd_cdc.o
                0x000000000800434c                USBD_CDC_RegisterInterface
 .text.USBD_CDC_SetTxBuffer
                0x000000000800435c       0x18 Middlewares/USB_Device_Library/usbd_cdc.o
                0x000000000800435c                USBD_CDC_SetTxBuffer
 .text.USBD_CDC_SetRxBuffer
                0x0000000008004374       0x14 Middlewares/USB_Device_Library/usbd_cdc.o
                0x0000000008004374                USBD_CDC_SetRxBuffer
 .text.USBD_CDC_TransmitPacket
                0x0000000008004388       0x30 Middlewares/USB_Device_Library/usbd_cdc.o
                0x0000000008004388                USBD_CDC_TransmitPacket
 .text.USBD_CDC_ReceivePacket
                0x00000000080043b8       0x34 Middlewares/USB_Device_Library/usbd_cdc.o
                0x00000000080043b8                USBD_CDC_ReceivePacket
 .text.USBD_Init
                0x00000000080043ec       0x28 Middlewares/USB_Device_Library/usbd_core.o
                0x00000000080043ec                USBD_Init
 .text.USBD_RegisterClass
                0x0000000008004414       0x34 Middlewares/USB_Device_Library/usbd_core.o
                0x0000000008004414                USBD_RegisterClass
 .text.USBD_Start
                0x0000000008004448        0x4 Middlewares/USB_Device_Library/usbd_core.o
                0x0000000008004448                USBD_Start
 .text.USBD_SetClassConfig
                0x000000000800444c       0x10 Middlewares/USB_Device_Library/usbd_core.o
                0x000000000800444c                USBD_SetClassConfig
 .text.USBD_ClrClassConfig
                0x000000000800445c       0x10 Middlewares/USB_Device_Library/usbd_core.o
                0x000000000800445c                USBD_ClrClassConfig
 .text.USBD_LL_SetupStage
                0x000000000800446c       0x60 Middlewares/USB_Device_Library/usbd_core.o
                0x000000000800446c                USBD_LL_SetupStage
 .text.USBD_LL_DataOutStage
                0x00000000080044cc       0x68 Middlewares/USB_Device_Library/usbd_core.o
                0x00000000080044cc                USBD_LL_DataOutStage
 .text.USBD_LL_DataInStage
                0x0000000008004534       0xac Middlewares/USB_Device_Library/usbd_core.o
                0x0000000008004534                USBD_LL_DataInStage
 .text.USBD_LL_Reset
                0x00000000080045e0       0x58 Middlewares/USB_Device_Library/usbd_core.o
                0x00000000080045e0                USBD_LL_Reset
 .text.USBD_LL_SetSpeed
                0x0000000008004638        0x8 Middlewares/USB_Device_Library/usbd_core.o
                0x0000000008004638                USBD_LL_SetSpeed
 .text.USBD_LL_Suspend
                0x0000000008004640       0x18 Middlewares/USB_Device_Library/usbd_core.o
                0x0000000008004640                USBD_LL_Suspend
 .text.USBD_LL_Resume
                0x0000000008004658       0x18 Middlewares/USB_Device_Library/usbd_core.o
                0x0000000008004658                USBD_LL_Resume
 .text.USBD_LL_SOF
                0x0000000008004670       0x28 Middlewares/USB_Device_Library/usbd_core.o
                0x0000000008004670                USBD_LL_SOF
 .text.USBD_LL_IsoINIncomplete
                0x0000000008004698       0x28 Middlewares/USB_Device_Library/usbd_core.o
                0x0000000008004698                USBD_LL_IsoINIncomplete
 .text.USBD_LL_IsoOUTIncomplete
                0x00000000080046c0       0x28 Middlewares/USB_Device_Library/usbd_core.o
                0x00000000080046c0                USBD_LL_IsoOUTIncomplete
 .text.USBD_LL_DevConnected
                0x00000000080046e8        0x4 Middlewares/USB_Device_Library/usbd_core.o
                0x00000000080046e8                USBD_LL_DevConnected
 .text.USBD_LL_DevDisconnected
                0x00000000080046ec       0x1c Middlewares/USB_Device_Library/usbd_core.o
                0x00000000080046ec                USBD_LL_DevDisconnected
 .text.USBD_StdDevReq
                0x0000000008004708      0x340 Middlewares/USB_Device_Library/usbd_ctlreq.o
                0x0000000008004708                USBD_StdDevReq
 .text.USBD_StdItfReq
                0x0000000008004a48       0x60 Middlewares/USB_Device_Library/usbd_ctlreq.o
                0x0000000008004a48                USBD_StdItfReq
 .text.USBD_StdEPReq
                0x0000000008004aa8      0x134 Middlewares/USB_Device_Library/usbd_ctlreq.o
                0x0000000008004aa8                USBD_StdEPReq
 .text.USBD_ParseSetupRequest
                0x0000000008004bdc       0x28 Middlewares/USB_Device_Library/usbd_ctlreq.o
                0x0000000008004bdc                USBD_ParseSetupRequest
 .text.USBD_CtlError
                0x0000000008004c04       0x18 Middlewares/USB_Device_Library/usbd_ctlreq.o
                0x0000000008004c04                USBD_CtlError
 .text.USBD_GetString
                0x0000000008004c1c       0x4c Middlewares/USB_Device_Library/usbd_ctlreq.o
                0x0000000008004c1c                USBD_GetString
 .text.USBD_CtlSendData
                0x0000000008004c68       0x1c Middlewares/USB_Device_Library/usbd_ioreq.o
                0x0000000008004c68                USBD_CtlSendData
 .text.USBD_CtlContinueSendData
                0x0000000008004c84       0x10 Middlewares/USB_Device_Library/usbd_ioreq.o
                0x0000000008004c84                USBD_CtlContinueSendData
 .text.USBD_CtlPrepareRx
                0x0000000008004c94       0x1c Middlewares/USB_Device_Library/usbd_ioreq.o
                0x0000000008004c94                USBD_CtlPrepareRx
 .text.USBD_CtlContinueRx
                0x0000000008004cb0       0x10 Middlewares/USB_Device_Library/usbd_ioreq.o
                0x0000000008004cb0                USBD_CtlContinueRx
 .text.USBD_CtlSendStatus
                0x0000000008004cc0       0x18 Middlewares/USB_Device_Library/usbd_ioreq.o
                0x0000000008004cc0                USBD_CtlSendStatus
 .text.USBD_CtlReceiveStatus
                0x0000000008004cd8       0x18 Middlewares/USB_Device_Library/usbd_ioreq.o
                0x0000000008004cd8                USBD_CtlReceiveStatus
 .text.MX_USB_DEVICE_Init
                0x0000000008004cf0       0x74 USB_DEVICE/App/usb_device.o
                0x0000000008004cf0                MX_USB_DEVICE_Init
 .text.CDC_DeInit_FS
                0x0000000008004d64        0x4 USB_DEVICE/App/usbd_cdc_if.o
 .text.CDC_Control_FS
                0x0000000008004d68        0x4 USB_DEVICE/App/usbd_cdc_if.o
 .text.CDC_TransmitCplt_FS
                0x0000000008004d6c        0x4 USB_DEVICE/App/usbd_cdc_if.o
 .text.CDC_Receive_FS
                0x0000000008004d70       0x28 USB_DEVICE/App/usbd_cdc_if.o
 .text.CDC_Init_FS
                0x0000000008004d98       0x28 USB_DEVICE/App/usbd_cdc_if.o
 .text.CDC_Transmit_FS
                0x0000000008004dc0       0x2c USB_DEVICE/App/usbd_cdc_if.o
                0x0000000008004dc0                CDC_Transmit_FS
 .text.CDC_IsFreeToTransmit
                0x0000000008004dec       0x24 USB_DEVICE/App/usbd_cdc_if.o
                0x0000000008004dec                CDC_IsFreeToTransmit
 .text.USBD_FS_DeviceDescriptor
                0x0000000008004e10        0xc USB_DEVICE/App/usbd_desc.o
                0x0000000008004e10                USBD_FS_DeviceDescriptor
 .text.USBD_FS_LangIDStrDescriptor
                0x0000000008004e1c        0xc USB_DEVICE/App/usbd_desc.o
                0x0000000008004e1c                USBD_FS_LangIDStrDescriptor
 .text.USBD_FS_ManufacturerStrDescriptor
                0x0000000008004e28       0x1c USB_DEVICE/App/usbd_desc.o
                0x0000000008004e28                USBD_FS_ManufacturerStrDescriptor
 .text.USBD_FS_ProductStrDescriptor
                0x0000000008004e44       0x1c USB_DEVICE/App/usbd_desc.o
                0x0000000008004e44                USBD_FS_ProductStrDescriptor
 .text.USBD_FS_ConfigStrDescriptor
                0x0000000008004e60       0x1c USB_DEVICE/App/usbd_desc.o
                0x0000000008004e60                USBD_FS_ConfigStrDescriptor
 .text.USBD_FS_InterfaceStrDescriptor
                0x0000000008004e7c       0x1c USB_DEVICE/App/usbd_desc.o
                0x0000000008004e7c                USBD_FS_InterfaceStrDescriptor
 .text.USBD_FS_SerialStrDescriptor
                0x0000000008004e98      0x118 USB_DEVICE/App/usbd_desc.o
                0x0000000008004e98                USBD_FS_SerialStrDescriptor
 .text.HAL_PCD_MspInit
                0x0000000008004fb0       0xb8 USB_DEVICE/Target/usbd_conf.o
                0x0000000008004fb0                HAL_PCD_MspInit
 .text.HAL_PCD_SetupStageCallback
                0x0000000008005068        0xc USB_DEVICE/Target/usbd_conf.o
                0x0000000008005068                HAL_PCD_SetupStageCallback
 .text.HAL_PCD_DataOutStageCallback
                0x0000000008005074       0x14 USB_DEVICE/Target/usbd_conf.o
                0x0000000008005074                HAL_PCD_DataOutStageCallback
 .text.HAL_PCD_DataInStageCallback
                0x0000000008005088       0x14 USB_DEVICE/Target/usbd_conf.o
                0x0000000008005088                HAL_PCD_DataInStageCallback
 .text.HAL_PCD_SOFCallback
                0x000000000800509c        0x8 USB_DEVICE/Target/usbd_conf.o
                0x000000000800509c                HAL_PCD_SOFCallback
 .text.HAL_PCD_ResetCallback
                0x00000000080050a4       0x2c USB_DEVICE/Target/usbd_conf.o
                0x00000000080050a4                HAL_PCD_ResetCallback
 .text.HAL_PCD_SuspendCallback
                0x00000000080050d0       0x30 USB_DEVICE/Target/usbd_conf.o
                0x00000000080050d0                HAL_PCD_SuspendCallback
 .text.HAL_PCD_ResumeCallback
                0x0000000008005100        0x8 USB_DEVICE/Target/usbd_conf.o
                0x0000000008005100                HAL_PCD_ResumeCallback
 .text.HAL_PCD_ISOOUTIncompleteCallback
                0x0000000008005108        0x8 USB_DEVICE/Target/usbd_conf.o
                0x0000000008005108                HAL_PCD_ISOOUTIncompleteCallback
 .text.HAL_PCD_ISOINIncompleteCallback
                0x0000000008005110        0x8 USB_DEVICE/Target/usbd_conf.o
                0x0000000008005110                HAL_PCD_ISOINIncompleteCallback
 .text.HAL_PCD_ConnectCallback
                0x0000000008005118        0x8 USB_DEVICE/Target/usbd_conf.o
                0x0000000008005118                HAL_PCD_ConnectCallback
 .text.HAL_PCD_DisconnectCallback
                0x0000000008005120        0x8 USB_DEVICE/Target/usbd_conf.o
                0x0000000008005120                HAL_PCD_DisconnectCallback
 .text.USBD_LL_Init
                0x0000000008005128       0x64 USB_DEVICE/Target/usbd_conf.o
                0x0000000008005128                USBD_LL_Init
 .text.USBD_LL_Start
                0x000000000800518c       0x1c USB_DEVICE/Target/usbd_conf.o
                0x000000000800518c                USBD_LL_Start
 .text.USBD_LL_OpenEP
                0x00000000080051a8       0x20 USB_DEVICE/Target/usbd_conf.o
                0x00000000080051a8                USBD_LL_OpenEP
 .text.USBD_LL_CloseEP
                0x00000000080051c8       0x1c USB_DEVICE/Target/usbd_conf.o
                0x00000000080051c8                USBD_LL_CloseEP
 .text.USBD_LL_StallEP
                0x00000000080051e4       0x1c USB_DEVICE/Target/usbd_conf.o
                0x00000000080051e4                USBD_LL_StallEP
 .text.USBD_LL_ClearStallEP
                0x0000000008005200       0x1c USB_DEVICE/Target/usbd_conf.o
                0x0000000008005200                USBD_LL_ClearStallEP
 .text.USBD_LL_IsStallEP
                0x000000000800521c       0x28 USB_DEVICE/Target/usbd_conf.o
                0x000000000800521c                USBD_LL_IsStallEP
 .text.USBD_LL_SetUSBAddress
                0x0000000008005244       0x1c USB_DEVICE/Target/usbd_conf.o
                0x0000000008005244                USBD_LL_SetUSBAddress
 .text.USBD_LL_Transmit
                0x0000000008005260       0x1c USB_DEVICE/Target/usbd_conf.o
                0x0000000008005260                USBD_LL_Transmit
 .text.USBD_LL_PrepareReceive
                0x000000000800527c       0x1c USB_DEVICE/Target/usbd_conf.o
                0x000000000800527c                USBD_LL_PrepareReceive
 .text.USBD_LL_GetRxDataSize
                0x0000000008005298        0x8 USB_DEVICE/Target/usbd_conf.o
                0x0000000008005298                USBD_LL_GetRxDataSize
 .text.USBD_static_malloc
                0x00000000080052a0        0x8 USB_DEVICE/Target/usbd_conf.o
                0x00000000080052a0                USBD_static_malloc
 .text.USBD_static_free
                0x00000000080052a8        0x4 USB_DEVICE/Target/usbd_conf.o
                0x00000000080052a8                USBD_static_free
 .text.__libc_init_array
                0x00000000080052ac       0x48 /opt/st/stm32cubeide_1.6.1/plugins/com.st.stm32cube.ide.mcu.externaltools.gnu-tools-for-stm32.9-2020-q2-update.linux64_1.5.0.202011040924/tools/bin/../lib/gcc/arm-none-eabi/9.3.1/../../../../arm-none-eabi/lib/thumb/v7e-m+fp/hard/libc_nano.a(lib_a-init.o)
                0x00000000080052ac                __libc_init_array
 *(.glue_7)
 .glue_7        0x00000000080052f4        0x0 linker stubs
 *(.glue_7t)
 .glue_7t       0x00000000080052f4        0x0 linker stubs
 *(.eh_frame)
 .eh_frame      0x00000000080052f4        0x0 /opt/st/stm32cubeide_1.6.1/plugins/com.st.stm32cube.ide.mcu.externaltools.gnu-tools-for-stm32.9-2020-q2-update.linux64_1.5.0.202011040924/tools/bin/../lib/gcc/arm-none-eabi/9.3.1/thumb/v7e-m+fp/hard/crtbegin.o
 *(.init)
 .init          0x00000000080052f4        0x4 /opt/st/stm32cubeide_1.6.1/plugins/com.st.stm32cube.ide.mcu.externaltools.gnu-tools-for-stm32.9-2020-q2-update.linux64_1.5.0.202011040924/tools/bin/../lib/gcc/arm-none-eabi/9.3.1/thumb/v7e-m+fp/hard/crti.o
                0x00000000080052f4                _init
 .init          0x00000000080052f8        0x8 /opt/st/stm32cubeide_1.6.1/plugins/com.st.stm32cube.ide.mcu.externaltools.gnu-tools-for-stm32.9-2020-q2-update.linux64_1.5.0.202011040924/tools/bin/../lib/gcc/arm-none-eabi/9.3.1/thumb/v7e-m+fp/hard/crtn.o
 *(.fini)
 .fini          0x0000000008005300        0x4 /opt/st/stm32cubeide_1.6.1/plugins/com.st.stm32cube.ide.mcu.externaltools.gnu-tools-for-stm32.9-2020-q2-update.linux64_1.5.0.202011040924/tools/bin/../lib/gcc/arm-none-eabi/9.3.1/thumb/v7e-m+fp/hard/crti.o
                0x0000000008005300                _fini
 .fini          0x0000000008005304        0x8 /opt/st/stm32cubeide_1.6.1/plugins/com.st.stm32cube.ide.mcu.externaltools.gnu-tools-for-stm32.9-2020-q2-update.linux64_1.5.0.202011040924/tools/bin/../lib/gcc/arm-none-eabi/9.3.1/thumb/v7e-m+fp/hard/crtn.o
                0x000000000800530c                . = ALIGN (0x4)
                0x000000000800530c                _etext = .

.vfp11_veneer   0x000000000800530c        0x0
 .vfp11_veneer  0x000000000800530c        0x0 linker stubs

.v4_bx          0x000000000800530c        0x0
 .v4_bx         0x000000000800530c        0x0 linker stubs

.iplt           0x000000000800530c        0x0
 .iplt          0x000000000800530c        0x0 /opt/st/stm32cubeide_1.6.1/plugins/com.st.stm32cube.ide.mcu.externaltools.gnu-tools-for-stm32.9-2020-q2-update.linux64_1.5.0.202011040924/tools/bin/../lib/gcc/arm-none-eabi/9.3.1/thumb/v7e-m+fp/hard/crtbegin.o

.rodata         0x000000000800530c       0xac
                0x000000000800530c                . = ALIGN (0x4)
 *(.rodata)
 *(.rodata*)
 .rodata.CHANNEL_PINS
                0x000000000800530c       0x1a Core/Src/main.o
                0x000000000800530c                CHANNEL_PINS
 *fill*         0x0000000008005326        0x2 
 .rodata.CHANNEL_PORTS
                0x0000000008005328       0x34 Core/Src/main.o
                0x0000000008005328                CHANNEL_PORTS
 .rodata.AHBPrescTable
                0x000000000800535c       0x10 Core/Src/system_stm32f4xx.o
                0x000000000800535c                AHBPrescTable
 .rodata.USBD_FS_ManufacturerStrDescriptor.str1.4
                0x000000000800536c       0x13 USB_DEVICE/App/usbd_desc.o
 *fill*         0x000000000800537f        0x1 
 .rodata.USBD_FS_ProductStrDescriptor.str1.4
                0x0000000008005380       0x16 USB_DEVICE/App/usbd_desc.o
 *fill*         0x0000000008005396        0x2 
 .rodata.USBD_FS_ConfigStrDescriptor.str1.4
                0x0000000008005398        0xb USB_DEVICE/App/usbd_desc.o
 *fill*         0x00000000080053a3        0x1 
 .rodata.USBD_FS_InterfaceStrDescriptor.str1.4
                0x00000000080053a4        0xe USB_DEVICE/App/usbd_desc.o
 *fill*         0x00000000080053b2        0x2 
 .rodata.CSWTCH.23
                0x00000000080053b4        0x4 USB_DEVICE/Target/usbd_conf.o
                0x00000000080053b8                . = ALIGN (0x4)

.ARM.extab      0x00000000080053b8        0x0
                0x00000000080053b8                . = ALIGN (0x4)
 *(.ARM.extab* .gnu.linkonce.armextab.*)
                0x00000000080053b8                . = ALIGN (0x4)

.ARM            0x00000000080053b8        0x8
                0x00000000080053b8                . = ALIGN (0x4)
                0x00000000080053b8                __exidx_start = .
 *(.ARM.exidx*)
 .ARM.exidx     0x00000000080053b8        0x8 /opt/st/stm32cubeide_1.6.1/plugins/com.st.stm32cube.ide.mcu.externaltools.gnu-tools-for-stm32.9-2020-q2-update.linux64_1.5.0.202011040924/tools/bin/../lib/gcc/arm-none-eabi/9.3.1/thumb/v7e-m+fp/hard/libgcc.a(_udivmoddi4.o)
                0x00000000080053c0                __exidx_end = .
                0x00000000080053c0                . = ALIGN (0x4)

.rel.dyn        0x00000000080053c0        0x0
 .rel.iplt      0x00000000080053c0        0x0 /opt/st/stm32cubeide_1.6.1/plugins/com.st.stm32cube.ide.mcu.externaltools.gnu-tools-for-stm32.9-2020-q2-update.linux64_1.5.0.202011040924/tools/bin/../lib/gcc/arm-none-eabi/9.3.1/thumb/v7e-m+fp/hard/crtbegin.o

.preinit_array  0x00000000080053c0        0x0
                0x00000000080053c0                . = ALIGN (0x4)
                0x00000000080053c0                PROVIDE (__preinit_array_start = .)
 *(.preinit_array*)
                0x00000000080053c0                PROVIDE (__preinit_array_end = .)
                0x00000000080053c0                . = ALIGN (0x4)

.init_array     0x00000000080053c0        0x4
                0x00000000080053c0                . = ALIGN (0x4)
                0x00000000080053c0                PROVIDE (__init_array_start = .)
 *(SORT_BY_NAME(.init_array.*))
 *(.init_array*)
 .init_array    0x00000000080053c0        0x4 /opt/st/stm32cubeide_1.6.1/plugins/com.st.stm32cube.ide.mcu.externaltools.gnu-tools-for-stm32.9-2020-q2-update.linux64_1.5.0.202011040924/tools/bin/../lib/gcc/arm-none-eabi/9.3.1/thumb/v7e-m+fp/hard/crtbegin.o
                0x00000000080053c4                PROVIDE (__init_array_end = .)
                0x00000000080053c4                . = ALIGN (0x4)

.fini_array     0x00000000080053c4        0x4
                0x00000000080053c4                . = ALIGN (0x4)
                [!provide]                        PROVIDE (__fini_array_start = .)
 *(SORT_BY_NAME(.fini_array.*))
 *(.fini_array*)
 .fini_array    0x00000000080053c4        0x4 /opt/st/stm32cubeide_1.6.1/plugins/com.st.stm32cube.ide.mcu.externaltools.gnu-tools-for-stm32.9-2020-q2-update.linux64_1.5.0.202011040924/tools/bin/../lib/gcc/arm-none-eabi/9.3.1/thumb/v7e-m+fp/hard/crtbegin.o
                [!provide]                        PROVIDE (__fini_array_end = .)
                0x00000000080053c8                . = ALIGN (0x4)
                0x00000000080053c8                _sidata = LOADADDR (.data)

.data           0x0000000020000000      0x184 load address 0x00000000080053c8
                0x0000000020000000                . = ALIGN (0x4)
                0x0000000020000000                _sdata = .
 *(.data)
 *(.data*)
 .data.usb_buffer.10625
                0x0000000020000000        0x1 Core/Src/main.o
 *fill*         0x0000000020000001        0x3 
 .data.SystemCoreClock
                0x0000000020000004        0x4 Core/Src/system_stm32f4xx.o
                0x0000000020000004                SystemCoreClock
 .data.uwTickFreq
                0x0000000020000008        0x1 Drivers/STM32F4xx_HAL_Driver/stm32f4xx_hal.o
                0x0000000020000008                uwTickFreq
 *fill*         0x0000000020000009        0x3 
 .data.uwTickPrio
                0x000000002000000c        0x4 Drivers/STM32F4xx_HAL_Driver/stm32f4xx_hal.o
                0x000000002000000c                uwTickPrio
 .data.USBD_CDC
                0x0000000020000010       0x38 Middlewares/USB_Device_Library/usbd_cdc.o
                0x0000000020000010                USBD_CDC
 .data.USBD_CDC_CfgFSDesc
                0x0000000020000048       0x43 Middlewares/USB_Device_Library/usbd_cdc.o
 *fill*         0x000000002000008b        0x1 
 .data.USBD_CDC_CfgHSDesc
                0x000000002000008c       0x43 Middlewares/USB_Device_Library/usbd_cdc.o
 *fill*         0x00000000200000cf        0x1 
 .data.USBD_CDC_DeviceQualifierDesc
                0x00000000200000d0        0xa Middlewares/USB_Device_Library/usbd_cdc.o
 *fill*         0x00000000200000da        0x2 
 .data.USBD_CDC_OtherSpeedCfgDesc
                0x00000000200000dc       0x43 Middlewares/USB_Device_Library/usbd_cdc.o
 *fill*         0x000000002000011f        0x1 
 .data.USBD_Interface_fops_FS
                0x0000000020000120       0x14 USB_DEVICE/App/usbd_cdc_if.o
                0x0000000020000120                USBD_Interface_fops_FS
 .data.FS_Desc  0x0000000020000134       0x1c USB_DEVICE/App/usbd_desc.o
                0x0000000020000134                FS_Desc
 .data.USBD_FS_DeviceDesc
                0x0000000020000150       0x12 USB_DEVICE/App/usbd_desc.o
                0x0000000020000150                USBD_FS_DeviceDesc
 *fill*         0x0000000020000162        0x2 
 .data.USBD_LangIDDesc
                0x0000000020000164        0x4 USB_DEVICE/App/usbd_desc.o
                0x0000000020000164                USBD_LangIDDesc
 .data.USBD_StringSerial
                0x0000000020000168       0x1a USB_DEVICE/App/usbd_desc.o
                0x0000000020000168                USBD_StringSerial
 *(.RamFunc)
 *(.RamFunc*)
                0x0000000020000184                . = ALIGN (0x4)
 *fill*         0x0000000020000182        0x2 
                0x0000000020000184                _edata = .

.igot.plt       0x0000000020000184        0x0 load address 0x000000000800554c
 .igot.plt      0x0000000020000184        0x0 /opt/st/stm32cubeide_1.6.1/plugins/com.st.stm32cube.ide.mcu.externaltools.gnu-tools-for-stm32.9-2020-q2-update.linux64_1.5.0.202011040924/tools/bin/../lib/gcc/arm-none-eabi/9.3.1/thumb/v7e-m+fp/hard/crtbegin.o
                0x0000000020000184                . = ALIGN (0x4)

.bss            0x0000000020000188    0x1bbd8 load address 0x000000000800554c
                0x0000000020000188                _sbss = .
                0x0000000020000188                __bss_start__ = _sbss
 *(.bss)
 .bss           0x0000000020000188       0x1c /opt/st/stm32cubeide_1.6.1/plugins/com.st.stm32cube.ide.mcu.externaltools.gnu-tools-for-stm32.9-2020-q2-update.linux64_1.5.0.202011040924/tools/bin/../lib/gcc/arm-none-eabi/9.3.1/thumb/v7e-m+fp/hard/crtbegin.o
 *(.bss*)
 .bss.cfgidx.10560
                0x00000000200001a4        0x1 Middlewares/USB_Device_Library/usbd_ctlreq.o
 *fill*         0x00000000200001a5        0x3 
 .bss.mem.10629
                0x00000000200001a8      0x220 USB_DEVICE/Target/usbd_conf.o
 *(COMMON)
 COMMON         0x00000000200003c8     0xd8e1 Core/Src/main.o
                0x00000000200003c8                selected_channel_indices
                0x00000000200003d4                n_bytes_remaining
                0x00000000200003d8                current_state
                0x00000000200003dc                htim5
                0x0000000020000424                channel_configurations
                0x000000002000043c                last_bit_index
                0x0000000020000440                hdac
                0x0000000020000454                htim6
                0x000000002000049c                backup_buffer
                0x000000002000dbd8                n_buffered_bytes
                0x000000002000dbdc                htim2
                0x000000002000dc24                n_satisfied_triggers
                0x000000002000dc28                previous_channel_state
                0x000000002000dc38                n_lost_packets
                0x000000002000dc40                general_configuration
                0x000000002000dc50                htim7
                0x000000002000dc98                sample_data
                0x000000002000dc9c                trigger_condition_satisfied
 *fill*         0x000000002000dca9        0x3 
 COMMON         0x000000002000dcac        0x4 Drivers/STM32F4xx_HAL_Driver/stm32f4xx_hal.o
                0x000000002000dcac                uwTick
 COMMON         0x000000002000dcb0      0x2d0 USB_DEVICE/App/usb_device.o
                0x000000002000dcb0                hUsbDeviceFS
 COMMON         0x000000002000df80     0xd7d8 USB_DEVICE/App/usbd_cdc_if.o
                0x000000002000df80                UserRxBufferFS
                0x000000002000e080                UserTxBufferFS
 COMMON         0x000000002001b758      0x200 USB_DEVICE/App/usbd_desc.o
                0x000000002001b758                USBD_StrDesc
 COMMON         0x000000002001b958      0x408 USB_DEVICE/Target/usbd_conf.o
                0x000000002001b958                hpcd_USB_OTG_FS
                0x000000002001bd60                . = ALIGN (0x4)
                0x000000002001bd60                _ebss = .
                0x000000002001bd60                __bss_end__ = _ebss

._user_heap_stack
                0x000000002001bd60     0x2200 load address 0x000000000800554c
                0x000000002001bd60                . = ALIGN (0x8)
                [!provide]                        PROVIDE (end = .)
                0x000000002001bd60                PROVIDE (_end = .)
                0x000000002001bf60                . = (. + _Min_Heap_Size)
 *fill*         0x000000002001bd60      0x200 
                0x000000002001df60                . = (. + _Min_Stack_Size)
 *fill*         0x000000002001bf60     0x2000 
                0x000000002001df60                . = ALIGN (0x8)

/DISCARD/
 libc.a(*)
 libm.a(*)
 libgcc.a(*)

.ARM.attributes
                0x0000000000000000       0x30
 *(.ARM.attributes)
 .ARM.attributes
                0x0000000000000000       0x1e /opt/st/stm32cubeide_1.6.1/plugins/com.st.stm32cube.ide.mcu.externaltools.gnu-tools-for-stm32.9-2020-q2-update.linux64_1.5.0.202011040924/tools/bin/../lib/gcc/arm-none-eabi/9.3.1/thumb/v7e-m+fp/hard/crti.o
 .ARM.attributes
                0x000000000000001e       0x34 /opt/st/stm32cubeide_1.6.1/plugins/com.st.stm32cube.ide.mcu.externaltools.gnu-tools-for-stm32.9-2020-q2-update.linux64_1.5.0.202011040924/tools/bin/../lib/gcc/arm-none-eabi/9.3.1/thumb/v7e-m+fp/hard/crtbegin.o
 .ARM.attributes
                0x0000000000000052       0x30 Core/Src/main.o
 .ARM.attributes
                0x0000000000000082       0x30 Core/Src/stm32f4xx_hal_msp.o
 .ARM.attributes
                0x00000000000000b2       0x30 Core/Src/stm32f4xx_it.o
 .ARM.attributes
                0x00000000000000e2       0x30 Core/Src/system_stm32f4xx.o
 .ARM.attributes
                0x0000000000000112       0x30 Core/Src/volatile_mem_utilities.o
 .ARM.attributes
                0x0000000000000142       0x21 Core/Startup/startup_stm32f407vgtx.o
 .ARM.attributes
                0x0000000000000163       0x30 Drivers/STM32F4xx_HAL_Driver/stm32f4xx_hal.o
 .ARM.attributes
                0x0000000000000193       0x30 Drivers/STM32F4xx_HAL_Driver/stm32f4xx_hal_cortex.o
 .ARM.attributes
                0x00000000000001c3       0x30 Drivers/STM32F4xx_HAL_Driver/stm32f4xx_hal_dac.o
 .ARM.attributes
                0x00000000000001f3       0x30 Drivers/STM32F4xx_HAL_Driver/stm32f4xx_hal_dac_ex.o
 .ARM.attributes
                0x0000000000000223       0x30 Drivers/STM32F4xx_HAL_Driver/stm32f4xx_hal_gpio.o
 .ARM.attributes
                0x0000000000000253       0x30 Drivers/STM32F4xx_HAL_Driver/stm32f4xx_hal_pcd.o
 .ARM.attributes
                0x0000000000000283       0x30 Drivers/STM32F4xx_HAL_Driver/stm32f4xx_hal_pcd_ex.o
 .ARM.attributes
                0x00000000000002b3       0x30 Drivers/STM32F4xx_HAL_Driver/stm32f4xx_hal_rcc.o
 .ARM.attributes
                0x00000000000002e3       0x30 Drivers/STM32F4xx_HAL_Driver/stm32f4xx_hal_tim.o
 .ARM.attributes
                0x0000000000000313       0x30 Drivers/STM32F4xx_HAL_Driver/stm32f4xx_hal_tim_ex.o
 .ARM.attributes
                0x0000000000000343       0x30 Drivers/STM32F4xx_HAL_Driver/stm32f4xx_ll_usb.o
 .ARM.attributes
                0x0000000000000373       0x30 Middlewares/USB_Device_Library/usbd_cdc.o
 .ARM.attributes
                0x00000000000003a3       0x30 Middlewares/USB_Device_Library/usbd_core.o
 .ARM.attributes
                0x00000000000003d3       0x30 Middlewares/USB_Device_Library/usbd_ctlreq.o
 .ARM.attributes
                0x0000000000000403       0x30 Middlewares/USB_Device_Library/usbd_ioreq.o
 .ARM.attributes
                0x0000000000000433       0x30 USB_DEVICE/App/usb_device.o
 .ARM.attributes
                0x0000000000000463       0x30 USB_DEVICE/App/usbd_cdc_if.o
 .ARM.attributes
                0x0000000000000493       0x30 USB_DEVICE/App/usbd_desc.o
 .ARM.attributes
                0x00000000000004c3       0x30 USB_DEVICE/Target/usbd_conf.o
 .ARM.attributes
                0x00000000000004f3       0x34 /opt/st/stm32cubeide_1.6.1/plugins/com.st.stm32cube.ide.mcu.externaltools.gnu-tools-for-stm32.9-2020-q2-update.linux64_1.5.0.202011040924/tools/bin/../lib/gcc/arm-none-eabi/9.3.1/../../../../arm-none-eabi/lib/thumb/v7e-m+fp/hard/libc_nano.a(lib_a-init.o)
 .ARM.attributes
                0x0000000000000527       0x1e /opt/st/stm32cubeide_1.6.1/plugins/com.st.stm32cube.ide.mcu.externaltools.gnu-tools-for-stm32.9-2020-q2-update.linux64_1.5.0.202011040924/tools/bin/../lib/gcc/arm-none-eabi/9.3.1/thumb/v7e-m+fp/hard/libgcc.a(_arm_muldivdf3.o)
 .ARM.attributes
                0x0000000000000545       0x1e /opt/st/stm32cubeide_1.6.1/plugins/com.st.stm32cube.ide.mcu.externaltools.gnu-tools-for-stm32.9-2020-q2-update.linux64_1.5.0.202011040924/tools/bin/../lib/gcc/arm-none-eabi/9.3.1/thumb/v7e-m+fp/hard/libgcc.a(_arm_fixunsdfsi.o)
 .ARM.attributes
                0x0000000000000563       0x1e /opt/st/stm32cubeide_1.6.1/plugins/com.st.stm32cube.ide.mcu.externaltools.gnu-tools-for-stm32.9-2020-q2-update.linux64_1.5.0.202011040924/tools/bin/../lib/gcc/arm-none-eabi/9.3.1/thumb/v7e-m+fp/hard/libgcc.a(_aeabi_uldivmod.o)
 .ARM.attributes
                0x0000000000000581       0x34 /opt/st/stm32cubeide_1.6.1/plugins/com.st.stm32cube.ide.mcu.externaltools.gnu-tools-for-stm32.9-2020-q2-update.linux64_1.5.0.202011040924/tools/bin/../lib/gcc/arm-none-eabi/9.3.1/thumb/v7e-m+fp/hard/libgcc.a(_udivmoddi4.o)
 .ARM.attributes
                0x00000000000005b5       0x1e /opt/st/stm32cubeide_1.6.1/plugins/com.st.stm32cube.ide.mcu.externaltools.gnu-tools-for-stm32.9-2020-q2-update.linux64_1.5.0.202011040924/tools/bin/../lib/gcc/arm-none-eabi/9.3.1/thumb/v7e-m+fp/hard/libgcc.a(_dvmd_tls.o)
 .ARM.attributes
                0x00000000000005d3       0x1e /opt/st/stm32cubeide_1.6.1/plugins/com.st.stm32cube.ide.mcu.externaltools.gnu-tools-for-stm32.9-2020-q2-update.linux64_1.5.0.202011040924/tools/bin/../lib/gcc/arm-none-eabi/9.3.1/thumb/v7e-m+fp/hard/crtn.o
OUTPUT(STM Logic Analyzer.elf elf32-littlearm)
LOAD linker stubs
LOAD /opt/st/stm32cubeide_1.6.1/plugins/com.st.stm32cube.ide.mcu.externaltools.gnu-tools-for-stm32.9-2020-q2-update.linux64_1.5.0.202011040924/tools/bin/../lib/gcc/arm-none-eabi/9.3.1/../../../../arm-none-eabi/lib/thumb/v7e-m+fp/hard/libc.a
LOAD /opt/st/stm32cubeide_1.6.1/plugins/com.st.stm32cube.ide.mcu.externaltools.gnu-tools-for-stm32.9-2020-q2-update.linux64_1.5.0.202011040924/tools/bin/../lib/gcc/arm-none-eabi/9.3.1/../../../../arm-none-eabi/lib/thumb/v7e-m+fp/hard/libm.a
LOAD /opt/st/stm32cubeide_1.6.1/plugins/com.st.stm32cube.ide.mcu.externaltools.gnu-tools-for-stm32.9-2020-q2-update.linux64_1.5.0.202011040924/tools/bin/../lib/gcc/arm-none-eabi/9.3.1/thumb/v7e-m+fp/hard/libgcc.a

.debug_info     0x0000000000000000    0x21a67
 .debug_info    0x0000000000000000     0x3600 Core/Src/main.o
 .debug_info    0x0000000000003600     0x1130 Core/Src/stm32f4xx_hal_msp.o
 .debug_info    0x0000000000004730      0xf52 Core/Src/stm32f4xx_it.o
 .debug_info    0x0000000000005682      0x5bd Core/Src/system_stm32f4xx.o
 .debug_info    0x0000000000005c3f      0x267 Core/Src/volatile_mem_utilities.o
 .debug_info    0x0000000000005ea6       0x22 Core/Startup/startup_stm32f407vgtx.o
 .debug_info    0x0000000000005ec8      0xab1 Drivers/STM32F4xx_HAL_Driver/stm32f4xx_hal.o
 .debug_info    0x0000000000006979     0x1150 Drivers/STM32F4xx_HAL_Driver/stm32f4xx_hal_cortex.o
 .debug_info    0x0000000000007ac9      0xc30 Drivers/STM32F4xx_HAL_Driver/stm32f4xx_hal_dac.o
 .debug_info    0x00000000000086f9      0x925 Drivers/STM32F4xx_HAL_Driver/stm32f4xx_hal_dac_ex.o
 .debug_info    0x000000000000901e      0x88a Drivers/STM32F4xx_HAL_Driver/stm32f4xx_hal_gpio.o
 .debug_info    0x00000000000098a8     0x1a6d Drivers/STM32F4xx_HAL_Driver/stm32f4xx_hal_pcd.o
 .debug_info    0x000000000000b315      0x7dd Drivers/STM32F4xx_HAL_Driver/stm32f4xx_hal_pcd_ex.o
 .debug_info    0x000000000000baf2      0xbcb Drivers/STM32F4xx_HAL_Driver/stm32f4xx_hal_rcc.o
 .debug_info    0x000000000000c6bd     0x50cd Drivers/STM32F4xx_HAL_Driver/stm32f4xx_hal_tim.o
 .debug_info    0x000000000001178a     0x1d16 Drivers/STM32F4xx_HAL_Driver/stm32f4xx_hal_tim_ex.o
 .debug_info    0x00000000000134a0     0x240c Drivers/STM32F4xx_HAL_Driver/stm32f4xx_ll_usb.o
 .debug_info    0x00000000000158ac     0x1d1b Middlewares/USB_Device_Library/usbd_cdc.o
 .debug_info    0x00000000000175c7     0x177a Middlewares/USB_Device_Library/usbd_core.o
 .debug_info    0x0000000000018d41     0x1c36 Middlewares/USB_Device_Library/usbd_ctlreq.o
 .debug_info    0x000000000001a977     0x11ee Middlewares/USB_Device_Library/usbd_ioreq.o
 .debug_info    0x000000000001bb65     0x1109 USB_DEVICE/App/usb_device.o
 .debug_info    0x000000000001cc6e     0x1361 USB_DEVICE/App/usbd_cdc_if.o
 .debug_info    0x000000000001dfcf     0x100f USB_DEVICE/App/usbd_desc.o
 .debug_info    0x000000000001efde     0x2a89 USB_DEVICE/Target/usbd_conf.o

.debug_abbrev   0x0000000000000000     0x480a
 .debug_abbrev  0x0000000000000000      0x561 Core/Src/main.o
 .debug_abbrev  0x0000000000000561      0x219 Core/Src/stm32f4xx_hal_msp.o
 .debug_abbrev  0x000000000000077a      0x26a Core/Src/stm32f4xx_it.o
 .debug_abbrev  0x00000000000009e4      0x14b Core/Src/system_stm32f4xx.o
 .debug_abbrev  0x0000000000000b2f      0x124 Core/Src/volatile_mem_utilities.o
 .debug_abbrev  0x0000000000000c53       0x12 Core/Startup/startup_stm32f407vgtx.o
 .debug_abbrev  0x0000000000000c65      0x27e Drivers/STM32F4xx_HAL_Driver/stm32f4xx_hal.o
 .debug_abbrev  0x0000000000000ee3      0x389 Drivers/STM32F4xx_HAL_Driver/stm32f4xx_hal_cortex.o
 .debug_abbrev  0x000000000000126c      0x279 Drivers/STM32F4xx_HAL_Driver/stm32f4xx_hal_dac.o
 .debug_abbrev  0x00000000000014e5      0x26e Drivers/STM32F4xx_HAL_Driver/stm32f4xx_hal_dac_ex.o
 .debug_abbrev  0x0000000000001753      0x231 Drivers/STM32F4xx_HAL_Driver/stm32f4xx_hal_gpio.o
 .debug_abbrev  0x0000000000001984      0x390 Drivers/STM32F4xx_HAL_Driver/stm32f4xx_hal_pcd.o
 .debug_abbrev  0x0000000000001d14      0x21a Drivers/STM32F4xx_HAL_Driver/stm32f4xx_hal_pcd_ex.o
 .debug_abbrev  0x0000000000001f2e      0x318 Drivers/STM32F4xx_HAL_Driver/stm32f4xx_hal_rcc.o
 .debug_abbrev  0x0000000000002246      0x3b8 Drivers/STM32F4xx_HAL_Driver/stm32f4xx_hal_tim.o
 .debug_abbrev  0x00000000000025fe      0x36d Drivers/STM32F4xx_HAL_Driver/stm32f4xx_hal_tim_ex.o
 .debug_abbrev  0x000000000000296b      0x439 Drivers/STM32F4xx_HAL_Driver/stm32f4xx_ll_usb.o
 .debug_abbrev  0x0000000000002da4      0x348 Middlewares/USB_Device_Library/usbd_cdc.o
 .debug_abbrev  0x00000000000030ec      0x3b4 Middlewares/USB_Device_Library/usbd_core.o
 .debug_abbrev  0x00000000000034a0      0x472 Middlewares/USB_Device_Library/usbd_ctlreq.o
 .debug_abbrev  0x0000000000003912      0x24c Middlewares/USB_Device_Library/usbd_ioreq.o
 .debug_abbrev  0x0000000000003b5e      0x24b USB_DEVICE/App/usb_device.o
 .debug_abbrev  0x0000000000003da9      0x371 USB_DEVICE/App/usbd_cdc_if.o
 .debug_abbrev  0x000000000000411a      0x319 USB_DEVICE/App/usbd_desc.o
 .debug_abbrev  0x0000000000004433      0x3d7 USB_DEVICE/Target/usbd_conf.o

.debug_loc      0x0000000000000000    0x13db9
 .debug_loc     0x0000000000000000      0x8e6 Core/Src/main.o
 .debug_loc     0x00000000000008e6      0x125 Core/Src/stm32f4xx_hal_msp.o
 .debug_loc     0x0000000000000a0b      0x12f Core/Src/system_stm32f4xx.o
 .debug_loc     0x0000000000000b3a      0x159 Core/Src/volatile_mem_utilities.o
 .debug_loc     0x0000000000000c93      0x168 Drivers/STM32F4xx_HAL_Driver/stm32f4xx_hal.o
 .debug_loc     0x0000000000000dfb      0x7a7 Drivers/STM32F4xx_HAL_Driver/stm32f4xx_hal_cortex.o
 .debug_loc     0x00000000000015a2      0x8e2 Drivers/STM32F4xx_HAL_Driver/stm32f4xx_hal_dac.o
 .debug_loc     0x0000000000001e84      0x373 Drivers/STM32F4xx_HAL_Driver/stm32f4xx_hal_dac_ex.o
 .debug_loc     0x00000000000021f7      0x563 Drivers/STM32F4xx_HAL_Driver/stm32f4xx_hal_gpio.o
 .debug_loc     0x000000000000275a     0x131c Drivers/STM32F4xx_HAL_Driver/stm32f4xx_hal_pcd.o
 .debug_loc     0x0000000000003a76       0xeb Drivers/STM32F4xx_HAL_Driver/stm32f4xx_hal_pcd_ex.o
 .debug_loc     0x0000000000003b61      0x516 Drivers/STM32F4xx_HAL_Driver/stm32f4xx_hal_rcc.o
 .debug_loc     0x0000000000004077     0x793f Drivers/STM32F4xx_HAL_Driver/stm32f4xx_hal_tim.o
 .debug_loc     0x000000000000b9b6     0x1a66 Drivers/STM32F4xx_HAL_Driver/stm32f4xx_hal_tim_ex.o
 .debug_loc     0x000000000000d41c     0x2dbf Drivers/STM32F4xx_HAL_Driver/stm32f4xx_ll_usb.o
 .debug_loc     0x00000000000101db      0x826 Middlewares/USB_Device_Library/usbd_cdc.o
 .debug_loc     0x0000000000010a01      0xacf Middlewares/USB_Device_Library/usbd_core.o
 .debug_loc     0x00000000000114d0     0x12ef Middlewares/USB_Device_Library/usbd_ctlreq.o
 .debug_loc     0x00000000000127bf      0x2b8 Middlewares/USB_Device_Library/usbd_ioreq.o
 .debug_loc     0x0000000000012a77      0x153 USB_DEVICE/App/usbd_cdc_if.o
 .debug_loc     0x0000000000012bca      0x436 USB_DEVICE/App/usbd_desc.o
 .debug_loc     0x0000000000013000      0xdb9 USB_DEVICE/Target/usbd_conf.o

.debug_aranges  0x0000000000000000      0xea0
 .debug_aranges
                0x0000000000000000       0x60 Core/Src/main.o
 .debug_aranges
                0x0000000000000060       0x40 Core/Src/stm32f4xx_hal_msp.o
 .debug_aranges
                0x00000000000000a0       0x60 Core/Src/stm32f4xx_it.o
 .debug_aranges
                0x0000000000000100       0x28 Core/Src/system_stm32f4xx.o
 .debug_aranges
                0x0000000000000128       0x28 Core/Src/volatile_mem_utilities.o
 .debug_aranges
                0x0000000000000150       0x28 Core/Startup/startup_stm32f407vgtx.o
 .debug_aranges
                0x0000000000000178       0xe8 Drivers/STM32F4xx_HAL_Driver/stm32f4xx_hal.o
 .debug_aranges
                0x0000000000000260       0xa8 Drivers/STM32F4xx_HAL_Driver/stm32f4xx_hal_cortex.o
 .debug_aranges
                0x0000000000000308       0x98 Drivers/STM32F4xx_HAL_Driver/stm32f4xx_hal_dac.o
 .debug_aranges
                0x00000000000003a0       0x68 Drivers/STM32F4xx_HAL_Driver/stm32f4xx_hal_dac_ex.o
 .debug_aranges
                0x0000000000000408       0x58 Drivers/STM32F4xx_HAL_Driver/stm32f4xx_hal_gpio.o
 .debug_aranges
                0x0000000000000460       0xc8 Drivers/STM32F4xx_HAL_Driver/stm32f4xx_hal_pcd.o
 .debug_aranges
                0x0000000000000528       0x30 Drivers/STM32F4xx_HAL_Driver/stm32f4xx_hal_pcd_ex.o
 .debug_aranges
                0x0000000000000558       0x88 Drivers/STM32F4xx_HAL_Driver/stm32f4xx_hal_rcc.o
 .debug_aranges
                0x00000000000005e0      0x278 Drivers/STM32F4xx_HAL_Driver/stm32f4xx_hal_tim.o
 .debug_aranges
                0x0000000000000858      0x110 Drivers/STM32F4xx_HAL_Driver/stm32f4xx_hal_tim_ex.o
 .debug_aranges
                0x0000000000000968      0x190 Drivers/STM32F4xx_HAL_Driver/stm32f4xx_ll_usb.o
 .debug_aranges
                0x0000000000000af8       0x90 Middlewares/USB_Device_Library/usbd_cdc.o
 .debug_aranges
                0x0000000000000b88       0xb0 Middlewares/USB_Device_Library/usbd_core.o
 .debug_aranges
                0x0000000000000c38       0x48 Middlewares/USB_Device_Library/usbd_ctlreq.o
 .debug_aranges
                0x0000000000000c80       0x50 Middlewares/USB_Device_Library/usbd_ioreq.o
 .debug_aranges
                0x0000000000000cd0       0x20 USB_DEVICE/App/usb_device.o
 .debug_aranges
                0x0000000000000cf0       0x50 USB_DEVICE/App/usbd_cdc_if.o
 .debug_aranges
                0x0000000000000d40       0x50 USB_DEVICE/App/usbd_desc.o
 .debug_aranges
                0x0000000000000d90      0x110 USB_DEVICE/Target/usbd_conf.o

.debug_ranges   0x0000000000000000     0x2190
 .debug_ranges  0x0000000000000000      0x588 Core/Src/main.o
 .debug_ranges  0x0000000000000588       0xe0 Core/Src/stm32f4xx_hal_msp.o
 .debug_ranges  0x0000000000000668       0x50 Core/Src/stm32f4xx_it.o
 .debug_ranges  0x00000000000006b8       0x18 Core/Src/system_stm32f4xx.o
 .debug_ranges  0x00000000000006d0       0x18 Core/Src/volatile_mem_utilities.o
 .debug_ranges  0x00000000000006e8       0x20 Core/Startup/startup_stm32f407vgtx.o
 .debug_ranges  0x0000000000000708       0xd8 Drivers/STM32F4xx_HAL_Driver/stm32f4xx_hal.o
 .debug_ranges  0x00000000000007e0      0x1c0 Drivers/STM32F4xx_HAL_Driver/stm32f4xx_hal_cortex.o
 .debug_ranges  0x00000000000009a0       0x88 Drivers/STM32F4xx_HAL_Driver/stm32f4xx_hal_dac.o
 .debug_ranges  0x0000000000000a28       0x58 Drivers/STM32F4xx_HAL_Driver/stm32f4xx_hal_dac_ex.o
 .debug_ranges  0x0000000000000a80       0x68 Drivers/STM32F4xx_HAL_Driver/stm32f4xx_hal_gpio.o
 .debug_ranges  0x0000000000000ae8      0x130 Drivers/STM32F4xx_HAL_Driver/stm32f4xx_hal_pcd.o
 .debug_ranges  0x0000000000000c18       0x20 Drivers/STM32F4xx_HAL_Driver/stm32f4xx_hal_pcd_ex.o
 .debug_ranges  0x0000000000000c38      0x138 Drivers/STM32F4xx_HAL_Driver/stm32f4xx_hal_rcc.o
 .debug_ranges  0x0000000000000d70      0x968 Drivers/STM32F4xx_HAL_Driver/stm32f4xx_hal_tim.o
 .debug_ranges  0x00000000000016d8      0x1b0 Drivers/STM32F4xx_HAL_Driver/stm32f4xx_hal_tim_ex.o
 .debug_ranges  0x0000000000001888      0x2b8 Drivers/STM32F4xx_HAL_Driver/stm32f4xx_ll_usb.o
 .debug_ranges  0x0000000000001b40       0x80 Middlewares/USB_Device_Library/usbd_cdc.o
 .debug_ranges  0x0000000000001bc0       0xa0 Middlewares/USB_Device_Library/usbd_core.o
 .debug_ranges  0x0000000000001c60       0xf0 Middlewares/USB_Device_Library/usbd_ctlreq.o
 .debug_ranges  0x0000000000001d50       0x40 Middlewares/USB_Device_Library/usbd_ioreq.o
 .debug_ranges  0x0000000000001d90       0x10 USB_DEVICE/App/usb_device.o
 .debug_ranges  0x0000000000001da0       0x40 USB_DEVICE/App/usbd_cdc_if.o
 .debug_ranges  0x0000000000001de0      0x168 USB_DEVICE/App/usbd_desc.o
 .debug_ranges  0x0000000000001f48      0x248 USB_DEVICE/Target/usbd_conf.o

.debug_macro    0x0000000000000000    0x247af
 .debug_macro   0x0000000000000000      0x4a2 Core/Src/main.o
 .debug_macro   0x00000000000004a2      0xab4 Core/Src/main.o
 .debug_macro   0x0000000000000f56      0x2a1 Core/Src/main.o
 .debug_macro   0x00000000000011f7       0x2e Core/Src/main.o
 .debug_macro   0x0000000000001225       0x2f Core/Src/main.o
 .debug_macro   0x0000000000001254       0x22 Core/Src/main.o
 .debug_macro   0x0000000000001276       0x8e Core/Src/main.o
 .debug_macro   0x0000000000001304       0x51 Core/Src/main.o
 .debug_macro   0x0000000000001355      0x103 Core/Src/main.o
 .debug_macro   0x0000000000001458       0x6a Core/Src/main.o
 .debug_macro   0x00000000000014c2      0x1df Core/Src/main.o
 .debug_macro   0x00000000000016a1       0x1c Core/Src/main.o
 .debug_macro   0x00000000000016bd       0x22 Core/Src/main.o
 .debug_macro   0x00000000000016df       0xdf Core/Src/main.o
 .debug_macro   0x00000000000017be     0x102d Core/Src/main.o
 .debug_macro   0x00000000000027eb      0x11f Core/Src/main.o
 .debug_macro   0x000000000000290a    0x15e58 Core/Src/main.o
 .debug_macro   0x0000000000018762       0x6d Core/Src/main.o
 .debug_macro   0x00000000000187cf     0x3666 Core/Src/main.o
 .debug_macro   0x000000000001be35      0x174 Core/Src/main.o
 .debug_macro   0x000000000001bfa9       0x5c Core/Src/main.o
 .debug_macro   0x000000000001c005      0x96b Core/Src/main.o
 .debug_macro   0x000000000001c970      0x9fe Core/Src/main.o
 .debug_macro   0x000000000001d36e      0x116 Core/Src/main.o
 .debug_macro   0x000000000001d484      0x13e Core/Src/main.o
 .debug_macro   0x000000000001d5c2       0xa5 Core/Src/main.o
 .debug_macro   0x000000000001d667      0x174 Core/Src/main.o
 .debug_macro   0x000000000001d7db      0x287 Core/Src/main.o
 .debug_macro   0x000000000001da62       0x5f Core/Src/main.o
 .debug_macro   0x000000000001dac1      0x236 Core/Src/main.o
 .debug_macro   0x000000000001dcf7      0x122 Core/Src/main.o
 .debug_macro   0x000000000001de19       0xa6 Core/Src/main.o
 .debug_macro   0x000000000001debf      0x12c Core/Src/main.o
 .debug_macro   0x000000000001dfeb      0x21e Core/Src/main.o
 .debug_macro   0x000000000001e209       0x2e Core/Src/main.o
 .debug_macro   0x000000000001e237      0x11a Core/Src/main.o
 .debug_macro   0x000000000001e351       0x7e Core/Src/main.o
 .debug_macro   0x000000000001e3cf       0x89 Core/Src/main.o
 .debug_macro   0x000000000001e458      0x8d1 Core/Src/main.o
 .debug_macro   0x000000000001ed29       0x47 Core/Src/main.o
 .debug_macro   0x000000000001ed70      0x21e Core/Src/main.o
 .debug_macro   0x000000000001ef8e       0xba Core/Src/main.o
 .debug_macro   0x000000000001f048      0x12d Core/Src/main.o
 .debug_macro   0x000000000001f175      0x1aa Core/Src/main.o
 .debug_macro   0x000000000001f31f       0x52 Core/Src/main.o
 .debug_macro   0x000000000001f371       0x18 Core/Src/main.o
 .debug_macro   0x000000000001f389       0x3c Core/Src/main.o
 .debug_macro   0x000000000001f3c5       0x34 Core/Src/main.o
 .debug_macro   0x000000000001f3f9       0x16 Core/Src/main.o
 .debug_macro   0x000000000001f40f       0x35 Core/Src/main.o
 .debug_macro   0x000000000001f444      0x333 Core/Src/main.o
 .debug_macro   0x000000000001f777       0x10 Core/Src/main.o
 .debug_macro   0x000000000001f787       0x16 Core/Src/main.o
 .debug_macro   0x000000000001f79d       0x43 Core/Src/main.o
 .debug_macro   0x000000000001f7e0       0x34 Core/Src/main.o
 .debug_macro   0x000000000001f814       0x10 Core/Src/main.o
 .debug_macro   0x000000000001f824       0x58 Core/Src/main.o
 .debug_macro   0x000000000001f87c       0x71 Core/Src/main.o
 .debug_macro   0x000000000001f8ed       0x1c Core/Src/main.o
 .debug_macro   0x000000000001f909      0x12a Core/Src/main.o
 .debug_macro   0x000000000001fa33       0x10 Core/Src/main.o
 .debug_macro   0x000000000001fa43       0x1c Core/Src/main.o
 .debug_macro   0x000000000001fa5f       0x52 Core/Src/main.o
 .debug_macro   0x000000000001fab1       0x22 Core/Src/main.o
 .debug_macro   0x000000000001fad3       0x10 Core/Src/main.o
 .debug_macro   0x000000000001fae3       0x40 Core/Src/main.o
 .debug_macro   0x000000000001fb23       0xd5 Core/Src/main.o
 .debug_macro   0x000000000001fbf8       0x1c Core/Src/main.o
 .debug_macro   0x000000000001fc14       0x3d Core/Src/main.o
 .debug_macro   0x000000000001fc51       0x16 Core/Src/main.o
 .debug_macro   0x000000000001fc67      0x145 Core/Src/main.o
 .debug_macro   0x000000000001fdac       0x16 Core/Src/main.o
 .debug_macro   0x000000000001fdc2       0x16 Core/Src/main.o
 .debug_macro   0x000000000001fdd8       0x29 Core/Src/main.o
 .debug_macro   0x000000000001fe01       0x16 Core/Src/main.o
 .debug_macro   0x000000000001fe17       0x20 Core/Src/main.o
 .debug_macro   0x000000000001fe37       0x65 Core/Src/main.o
 .debug_macro   0x000000000001fe9c      0x1ef Core/Src/main.o
 .debug_macro   0x000000000002008b       0x95 Core/Src/main.o
 .debug_macro   0x0000000000020120       0x10 Core/Src/main.o
 .debug_macro   0x0000000000020130      0x20b Core/Src/stm32f4xx_hal_msp.o
 .debug_macro   0x000000000002033b      0x215 Core/Src/stm32f4xx_it.o
 .debug_macro   0x0000000000020550      0x1fc Core/Src/system_stm32f4xx.o
 .debug_macro   0x000000000002074c      0x215 Core/Src/volatile_mem_utilities.o
 .debug_macro   0x0000000000020961      0x25c Drivers/STM32F4xx_HAL_Driver/stm32f4xx_hal.o
 .debug_macro   0x0000000000020bbd      0x1fc Drivers/STM32F4xx_HAL_Driver/stm32f4xx_hal_cortex.o
 .debug_macro   0x0000000000020db9      0x1fd Drivers/STM32F4xx_HAL_Driver/stm32f4xx_hal_dac.o
 .debug_macro   0x0000000000020fb6      0x1fc Drivers/STM32F4xx_HAL_Driver/stm32f4xx_hal_dac_ex.o
 .debug_macro   0x00000000000211b2      0x202 Drivers/STM32F4xx_HAL_Driver/stm32f4xx_hal_gpio.o
 .debug_macro   0x00000000000213b4      0x208 Drivers/STM32F4xx_HAL_Driver/stm32f4xx_hal_pcd.o
 .debug_macro   0x00000000000215bc      0x1fc Drivers/STM32F4xx_HAL_Driver/stm32f4xx_hal_pcd_ex.o
 .debug_macro   0x00000000000217b8      0x220 Drivers/STM32F4xx_HAL_Driver/stm32f4xx_hal_rcc.o
 .debug_macro   0x00000000000219d8      0x1fd Drivers/STM32F4xx_HAL_Driver/stm32f4xx_hal_tim.o
 .debug_macro   0x0000000000021bd5      0x1fc Drivers/STM32F4xx_HAL_Driver/stm32f4xx_hal_tim_ex.o
 .debug_macro   0x0000000000021dd1      0x1fc Drivers/STM32F4xx_HAL_Driver/stm32f4xx_ll_usb.o
 .debug_macro   0x0000000000021fcd      0x421 Middlewares/USB_Device_Library/usbd_cdc.o
 .debug_macro   0x00000000000223ee       0x97 Middlewares/USB_Device_Library/usbd_cdc.o
 .debug_macro   0x0000000000022485       0xfd Middlewares/USB_Device_Library/usbd_cdc.o
 .debug_macro   0x0000000000022582       0xd9 Middlewares/USB_Device_Library/usbd_cdc.o
 .debug_macro   0x000000000002265b       0x56 Middlewares/USB_Device_Library/usbd_cdc.o
 .debug_macro   0x00000000000226b1      0x408 Middlewares/USB_Device_Library/usbd_core.o
 .debug_macro   0x0000000000022ab9      0x1f5 Middlewares/USB_Device_Library/usbd_core.o
 .debug_macro   0x0000000000022cae      0x412 Middlewares/USB_Device_Library/usbd_ctlreq.o
 .debug_macro   0x00000000000230c0      0x40e Middlewares/USB_Device_Library/usbd_ioreq.o
 .debug_macro   0x00000000000234ce      0x441 USB_DEVICE/App/usb_device.o
 .debug_macro   0x000000000002390f      0x1b0 USB_DEVICE/App/usb_device.o
 .debug_macro   0x0000000000023abf       0x22 USB_DEVICE/App/usb_device.o
 .debug_macro   0x0000000000023ae1       0x16 USB_DEVICE/App/usb_device.o
 .debug_macro   0x0000000000023af7      0x42c USB_DEVICE/App/usbd_cdc_if.o
 .debug_macro   0x0000000000023f23      0x44b USB_DEVICE/App/usbd_desc.o
 .debug_macro   0x000000000002436e       0x1c USB_DEVICE/App/usbd_desc.o
 .debug_macro   0x000000000002438a      0x425 USB_DEVICE/Target/usbd_conf.o

.debug_line     0x0000000000000000    0x1e4f4
 .debug_line    0x0000000000000000     0x1ad1 Core/Src/main.o
 .debug_line    0x0000000000001ad1      0x990 Core/Src/stm32f4xx_hal_msp.o
 .debug_line    0x0000000000002461      0x90d Core/Src/stm32f4xx_it.o
 .debug_line    0x0000000000002d6e      0x869 Core/Src/system_stm32f4xx.o
 .debug_line    0x00000000000035d7      0x88c Core/Src/volatile_mem_utilities.o
 .debug_line    0x0000000000003e63       0x88 Core/Startup/startup_stm32f407vgtx.o
 .debug_line    0x0000000000003eeb      0xb9e Drivers/STM32F4xx_HAL_Driver/stm32f4xx_hal.o
 .debug_line    0x0000000000004a89      0xe43 Drivers/STM32F4xx_HAL_Driver/stm32f4xx_hal_cortex.o
 .debug_line    0x00000000000058cc      0xee4 Drivers/STM32F4xx_HAL_Driver/stm32f4xx_hal_dac.o
 .debug_line    0x00000000000067b0      0xbbd Drivers/STM32F4xx_HAL_Driver/stm32f4xx_hal_dac_ex.o
 .debug_line    0x000000000000736d      0xdb9 Drivers/STM32F4xx_HAL_Driver/stm32f4xx_hal_gpio.o
 .debug_line    0x0000000000008126     0x1963 Drivers/STM32F4xx_HAL_Driver/stm32f4xx_hal_pcd.o
 .debug_line    0x0000000000009a89      0x906 Drivers/STM32F4xx_HAL_Driver/stm32f4xx_hal_pcd_ex.o
 .debug_line    0x000000000000a38f     0x11e6 Drivers/STM32F4xx_HAL_Driver/stm32f4xx_hal_rcc.o
 .debug_line    0x000000000000b575     0x66b7 Drivers/STM32F4xx_HAL_Driver/stm32f4xx_hal_tim.o
 .debug_line    0x0000000000011c2c     0x204d Drivers/STM32F4xx_HAL_Driver/stm32f4xx_hal_tim_ex.o
 .debug_line    0x0000000000013c79     0x2d5c Drivers/STM32F4xx_HAL_Driver/stm32f4xx_ll_usb.o
 .debug_line    0x00000000000169d5     0x116c Middlewares/USB_Device_Library/usbd_cdc.o
 .debug_line    0x0000000000017b41     0x11ba Middlewares/USB_Device_Library/usbd_core.o
 .debug_line    0x0000000000018cfb     0x138b Middlewares/USB_Device_Library/usbd_ctlreq.o
 .debug_line    0x000000000001a086      0xc4d Middlewares/USB_Device_Library/usbd_ioreq.o
 .debug_line    0x000000000001acd3      0xbe0 USB_DEVICE/App/usb_device.o
 .debug_line    0x000000000001b8b3      0xc5b USB_DEVICE/App/usbd_cdc_if.o
 .debug_line    0x000000000001c50e      0xe3c USB_DEVICE/App/usbd_desc.o
 .debug_line    0x000000000001d34a     0x11aa USB_DEVICE/Target/usbd_conf.o

.debug_str      0x0000000000000000    0xcee25
 .debug_str     0x0000000000000000    0xcab1b Core/Src/main.o
                                      0xcb03b (size before relaxing)
 .debug_str     0x00000000000cab1b       0xdd Core/Src/stm32f4xx_hal_msp.o
                                      0xc52c8 (size before relaxing)
 .debug_str     0x00000000000cabf8      0x475 Core/Src/stm32f4xx_it.o
                                      0xc507e (size before relaxing)
 .debug_str     0x00000000000cb06d       0xaf Core/Src/system_stm32f4xx.o
                                      0xc403e (size before relaxing)
 .debug_str     0x00000000000cb11c       0x3e Core/Src/volatile_mem_utilities.o
                                      0xc45c2 (size before relaxing)
 .debug_str     0x00000000000cb15a       0x36 Core/Startup/startup_stm32f407vgtx.o
                                         0x71 (size before relaxing)
 .debug_str     0x00000000000cb190      0x5b6 Drivers/STM32F4xx_HAL_Driver/stm32f4xx_hal.o
                                      0xc4b9a (size before relaxing)
 .debug_str     0x00000000000cb746      0x362 Drivers/STM32F4xx_HAL_Driver/stm32f4xx_hal_cortex.o
                                      0xc4944 (size before relaxing)
 .debug_str     0x00000000000cbaa8      0x1d0 Drivers/STM32F4xx_HAL_Driver/stm32f4xx_hal_dac.o
                                      0xc44e9 (size before relaxing)
 .debug_str     0x00000000000cbc78      0x1aa Drivers/STM32F4xx_HAL_Driver/stm32f4xx_hal_dac_ex.o
                                      0xc440e (size before relaxing)
 .debug_str     0x00000000000cbe22      0x132 Drivers/STM32F4xx_HAL_Driver/stm32f4xx_hal_gpio.o
                                      0xc421a (size before relaxing)
 .debug_str     0x00000000000cbf54      0x7fc Drivers/STM32F4xx_HAL_Driver/stm32f4xx_hal_pcd.o
                                      0xc4ad3 (size before relaxing)
 .debug_str     0x00000000000cc750      0x15d Drivers/STM32F4xx_HAL_Driver/stm32f4xx_hal_pcd_ex.o
                                      0xc4428 (size before relaxing)
 .debug_str     0x00000000000cc8ad      0x254 Drivers/STM32F4xx_HAL_Driver/stm32f4xx_hal_rcc.o
                                      0xc449c (size before relaxing)
 .debug_str     0x00000000000ccb01      0xdc3 Drivers/STM32F4xx_HAL_Driver/stm32f4xx_hal_tim.o
                                      0xc53f5 (size before relaxing)
 .debug_str     0x00000000000cd8c4      0x4e5 Drivers/STM32F4xx_HAL_Driver/stm32f4xx_hal_tim_ex.o
                                      0xc4bf6 (size before relaxing)
 .debug_str     0x00000000000cdda9      0x48a Drivers/STM32F4xx_HAL_Driver/stm32f4xx_ll_usb.o
                                      0xc499e (size before relaxing)
 .debug_str     0x00000000000ce233      0x347 Middlewares/USB_Device_Library/usbd_cdc.o
                                      0xc9f90 (size before relaxing)
 .debug_str     0x00000000000ce57a      0x2b6 Middlewares/USB_Device_Library/usbd_core.o
                                      0xc986f (size before relaxing)
 .debug_str     0x00000000000ce830      0x173 Middlewares/USB_Device_Library/usbd_ctlreq.o
                                      0xc97c1 (size before relaxing)
 .debug_str     0x00000000000ce9a3       0x86 Middlewares/USB_Device_Library/usbd_ioreq.o
                                      0xc96b6 (size before relaxing)
 .debug_str     0x00000000000cea29       0xaf USB_DEVICE/App/usb_device.o
                                      0xc9a23 (size before relaxing)
 .debug_str     0x00000000000cead8       0x6c USB_DEVICE/App/usbd_cdc_if.o
                                      0xc9aa3 (size before relaxing)
 .debug_str     0x00000000000ceb44      0x26e USB_DEVICE/App/usbd_desc.o
                                      0xc95a4 (size before relaxing)
 .debug_str     0x00000000000cedb2       0x73 USB_DEVICE/Target/usbd_conf.o
                                      0xca832 (size before relaxing)

.comment        0x0000000000000000       0x53
 .comment       0x0000000000000000       0x53 Core/Src/main.o
                                         0x54 (size before relaxing)
 .comment       0x0000000000000053       0x54 Core/Src/stm32f4xx_hal_msp.o
 .comment       0x0000000000000053       0x54 Core/Src/stm32f4xx_it.o
 .comment       0x0000000000000053       0x54 Core/Src/system_stm32f4xx.o
 .comment       0x0000000000000053       0x54 Core/Src/volatile_mem_utilities.o
 .comment       0x0000000000000053       0x54 Drivers/STM32F4xx_HAL_Driver/stm32f4xx_hal.o
 .comment       0x0000000000000053       0x54 Drivers/STM32F4xx_HAL_Driver/stm32f4xx_hal_cortex.o
 .comment       0x0000000000000053       0x54 Drivers/STM32F4xx_HAL_Driver/stm32f4xx_hal_dac.o
 .comment       0x0000000000000053       0x54 Drivers/STM32F4xx_HAL_Driver/stm32f4xx_hal_dac_ex.o
 .comment       0x0000000000000053       0x54 Drivers/STM32F4xx_HAL_Driver/stm32f4xx_hal_gpio.o
 .comment       0x0000000000000053       0x54 Drivers/STM32F4xx_HAL_Driver/stm32f4xx_hal_pcd.o
 .comment       0x0000000000000053       0x54 Drivers/STM32F4xx_HAL_Driver/stm32f4xx_hal_pcd_ex.o
 .comment       0x0000000000000053       0x54 Drivers/STM32F4xx_HAL_Driver/stm32f4xx_hal_rcc.o
 .comment       0x0000000000000053       0x54 Drivers/STM32F4xx_HAL_Driver/stm32f4xx_hal_tim.o
 .comment       0x0000000000000053       0x54 Drivers/STM32F4xx_HAL_Driver/stm32f4xx_hal_tim_ex.o
 .comment       0x0000000000000053       0x54 Drivers/STM32F4xx_HAL_Driver/stm32f4xx_ll_usb.o
 .comment       0x0000000000000053       0x54 Middlewares/USB_Device_Library/usbd_cdc.o
 .comment       0x0000000000000053       0x54 Middlewares/USB_Device_Library/usbd_core.o
 .comment       0x0000000000000053       0x54 Middlewares/USB_Device_Library/usbd_ctlreq.o
 .comment       0x0000000000000053       0x54 Middlewares/USB_Device_Library/usbd_ioreq.o
 .comment       0x0000000000000053       0x54 USB_DEVICE/App/usb_device.o
 .comment       0x0000000000000053       0x54 USB_DEVICE/App/usbd_cdc_if.o
 .comment       0x0000000000000053       0x54 USB_DEVICE/App/usbd_desc.o
 .comment       0x0000000000000053       0x54 USB_DEVICE/Target/usbd_conf.o

.debug_frame    0x0000000000000000     0x30d4
 .debug_frame   0x0000000000000000      0x170 Core/Src/main.o
 .debug_frame   0x0000000000000170       0xb4 Core/Src/stm32f4xx_hal_msp.o
 .debug_frame   0x0000000000000224      0x140 Core/Src/stm32f4xx_it.o
 .debug_frame   0x0000000000000364       0x30 Core/Src/system_stm32f4xx.o
 .debug_frame   0x0000000000000394       0x30 Core/Src/volatile_mem_utilities.o
 .debug_frame   0x00000000000003c4      0x1f4 Drivers/STM32F4xx_HAL_Driver/stm32f4xx_hal.o
 .debug_frame   0x00000000000005b8      0x184 Drivers/STM32F4xx_HAL_Driver/stm32f4xx_hal_cortex.o
 .debug_frame   0x000000000000073c      0x204 Drivers/STM32F4xx_HAL_Driver/stm32f4xx_hal_dac.o
 .debug_frame   0x0000000000000940      0x128 Drivers/STM32F4xx_HAL_Driver/stm32f4xx_hal_dac_ex.o
 .debug_frame   0x0000000000000a68       0xd8 Drivers/STM32F4xx_HAL_Driver/stm32f4xx_hal_gpio.o
 .debug_frame   0x0000000000000b40      0x2f0 Drivers/STM32F4xx_HAL_Driver/stm32f4xx_hal_pcd.o
 .debug_frame   0x0000000000000e30       0x64 Drivers/STM32F4xx_HAL_Driver/stm32f4xx_hal_pcd_ex.o
 .debug_frame   0x0000000000000e94      0x18c Drivers/STM32F4xx_HAL_Driver/stm32f4xx_hal_rcc.o
 .debug_frame   0x0000000000001020      0xcbc Drivers/STM32F4xx_HAL_Driver/stm32f4xx_hal_tim.o
 .debug_frame   0x0000000000001cdc      0x494 Drivers/STM32F4xx_HAL_Driver/stm32f4xx_hal_tim_ex.o
 .debug_frame   0x0000000000002170      0x4fc Drivers/STM32F4xx_HAL_Driver/stm32f4xx_ll_usb.o
 .debug_frame   0x000000000000266c      0x180 Middlewares/USB_Device_Library/usbd_cdc.o
 .debug_frame   0x00000000000027ec      0x23c Middlewares/USB_Device_Library/usbd_core.o
 .debug_frame   0x0000000000002a28       0xdc Middlewares/USB_Device_Library/usbd_ctlreq.o
 .debug_frame   0x0000000000002b04       0xb8 Middlewares/USB_Device_Library/usbd_ioreq.o
 .debug_frame   0x0000000000002bbc       0x2c USB_DEVICE/App/usb_device.o
 .debug_frame   0x0000000000002be8       0xa0 USB_DEVICE/App/usbd_cdc_if.o
 .debug_frame   0x0000000000002c88       0xac USB_DEVICE/App/usbd_desc.o
 .debug_frame   0x0000000000002d34      0x2a0 USB_DEVICE/Target/usbd_conf.o
 .debug_frame   0x0000000000002fd4       0x2c /opt/st/stm32cubeide_1.6.1/plugins/com.st.stm32cube.ide.mcu.externaltools.gnu-tools-for-stm32.9-2020-q2-update.linux64_1.5.0.202011040924/tools/bin/../lib/gcc/arm-none-eabi/9.3.1/../../../../arm-none-eabi/lib/thumb/v7e-m+fp/hard/libc_nano.a(lib_a-init.o)
 .debug_frame   0x0000000000003000       0x50 /opt/st/stm32cubeide_1.6.1/plugins/com.st.stm32cube.ide.mcu.externaltools.gnu-tools-for-stm32.9-2020-q2-update.linux64_1.5.0.202011040924/tools/bin/../lib/gcc/arm-none-eabi/9.3.1/thumb/v7e-m+fp/hard/libgcc.a(_arm_muldivdf3.o)
 .debug_frame   0x0000000000003050       0x24 /opt/st/stm32cubeide_1.6.1/plugins/com.st.stm32cube.ide.mcu.externaltools.gnu-tools-for-stm32.9-2020-q2-update.linux64_1.5.0.202011040924/tools/bin/../lib/gcc/arm-none-eabi/9.3.1/thumb/v7e-m+fp/hard/libgcc.a(_arm_fixunsdfsi.o)
 .debug_frame   0x0000000000003074       0x2c /opt/st/stm32cubeide_1.6.1/plugins/com.st.stm32cube.ide.mcu.externaltools.gnu-tools-for-stm32.9-2020-q2-update.linux64_1.5.0.202011040924/tools/bin/../lib/gcc/arm-none-eabi/9.3.1/thumb/v7e-m+fp/hard/libgcc.a(_aeabi_uldivmod.o)
 .debug_frame   0x00000000000030a0       0x34 /opt/st/stm32cubeide_1.6.1/plugins/com.st.stm32cube.ide.mcu.externaltools.gnu-tools-for-stm32.9-2020-q2-update.linux64_1.5.0.202011040924/tools/bin/../lib/gcc/arm-none-eabi/9.3.1/thumb/v7e-m+fp/hard/libgcc.a(_udivmoddi4.o)
